:020000021000EC
:1002000028F10020F91F0200DD190200E51F02009D
:10021000E51F0200E51F0200E51F0200E51F0200C6
:100220000000000000000000000000009521020016
:10023000E51F020000000000FD200200E51F020093
:100240006D2402006D2402006D2402006D24020062
:100250006D2402006D2402006D2402006D24020052
:100260006D2402006D2402006D2402006D24020042
:100270006D2402006D2402006D2402006D24020032
:100280006D2402006D2402006D2402006D24020022
:100290006D2402006D2402006D2402006D24020012
:1002A0006D2402006D2402006D2402006D24020002
:1002B0006D2402006D2402006D2402006D240200F2
:1002C0006D2402006D2402006D2402006D240200E2
:1002D0006D2402006D2402006D2402006D240200D2
:1002E0006D2402006D2402006D2402006D240200C2
:1002F0006D2402006D2402006D2402006D240200B2
:100300006D2402006D2402006D2402006D240200A1
:100310006D2402006D2402006D2402006D24020091
:100320006D2402006D2402006D2402006D24020081
:100330006D2402006D2402006D2402006D24020071
:100340006D2402006D2402006D2402006D24020061
:040350006D24020016
:100358002DE9F14F03F11C0402EB840C4FEA930BD7
:100368008A68CB680868496800F046F93CE9F000FB
:100378006040694072407B400BF1060E4EE083EA14
:10038800134480EA134582EA134746BA96EA34448E
:10039800604000F00F1684EA063420F00F1684EA55
:1003A800161054BA94EA0106724002F00F1486EA55
:1003B800043622F00F1486EA14124CBA65406940DC
:1003C80001F00F1485EA043521F00F1485EA1411A1
:1003D8005CBA67407B4003F00F1487EA043723F0C8
:1003E8000F1487EA141344BA44404DBA4D4056BA24
:1003F80056405FBA5F4087EA174886EA174B84EA97
:1004080017464FEA38488BEA1B4485EA1B4788EAB7
:100418001B4580EA3440694072407B4000F07034EC
:1004280000F0803500F00F3040EA440040EAD50083
:1004380080EA900404F0332480EA8400604001F0EC
:10044800703401F0803501F00F3141EA440141EA8E
:10045800D50181EA910404F0332481EA84016140E2
:1004680002F0703402F0803502F00F3242EA4402A2
:1004780042EAD50282EA920404F0332482EA840232
:10048800624003F0703403F0803503F00F3343EA21
:10049800440343EAD50383EA930404F0332483EA4C
:1004A80084036340C943DB4381EA000483EA0446CA
:1004B80086EA020183EA014382EA334583EA144368
:1004C8005C4084EA00077FEA040A8AEA024A8AEA68
:1004D800010B87EA11488AEA374A80EA060181EA6D
:1004E8001A418AEA030A04EA0A00454088EA04072E
:1004F80007EA0B0041408AEA0B0608EA060084EA8C
:1005080034428AEA3A4602EA0603584045404140E6
:1005180087EA37438BEA3B4003EA000985EA090585
:1005280082EA0309464006EA0906714085EA0100A5
:1005380005EA3546464006EA314181EA304181EA1A
:10054800364606EA304686EA354634400F4086EAA3
:10055800010508EA050886EA3640024088EA0208EA
:1005680081EA314213405C4080EA020309EA030948
:1005780087EA0907674088EA040806EA0A0601EAE2
:100588000B018AEA0B0425408AEA3A442040454098
:100598008BEA3B4B02EA0B02564084EA0B042340E9
:1005A80059406E40694087EA364080EA384080EA20
:1005B800060380EA104481EA134585EA344585EA52
:1005C80017427D4082EA354180EA05403CE9F00067
:1005D8006040694072407B40BEF1010E3FF6CFAEED
:1005E80020BC00F05FF828606960AA60EB60BDE895
:1005F800F08F00BF00F000BA80EA101404F0F01485
:1006080080EA0410604081EA111404F0F01481EAD1
:100618000411614082EA121404F0F01482EA041210
:10062800624083EA131404F0F01483EA041363406D
:1006380080EA102404F47F4480EA0420604081EAC0
:10064800112404F47F4481EA0421614082EA1224DF
:1006580004F47F4482EA0422624083EA132404F407
:100668007F4483EA0423634081EA500404F055344C
:1006780080EA4400614083EA520404F0553482EA77
:100688004402634082EA900404F0333480EA840030
:10069800624083EA910404F0333481EA84016340C0
:1006A800704700BF82EA900404F0333480EA840083
:1006B800624083EA910404F0333481EA84016340A0
:1006C80081EA500404F0553480EA4400614083EA2A
:1006D800520404F0553482EA4402634080EA10244C
:1006E80004F47F4480EA0420604081EA112404F481
:1006F8007F4481EA0421614082EA122404F47F44A1
:1007080082EA0422624083EA132404F47F4483EAE1
:100718000423634080EA101404F0F01480EA041003
:10072800604081EA111404F0F01481EA0411614078
:1007380082EA121404F0F01482EA0412624083EA96
:10074800131404F0F01483EA04136340704700BFE5
:100758002DE9F14F94464FEA930B8A68CB680868F5
:100768004968FFF749FF0BF1060E33E083EA1344AB
:1007780080EA134582EA134746BA96EA3444604051
:1007880000F00F1684EA063420F00F1684EA1610DB
:1007980054BA94EA0106724002F00F1486EA04364D
:1007A80022F00F1486EA14124CBA6540694001F031
:1007B8000F1485EA043521F00F1485EA14115CBA88
:1007C80067407B4003F00F1487EA043723F00F14C7
:1007D80087EA1413BCE8F0006040694072407B402F
:1007E80000F0E03400F0103500F00F3040EA54001B
:1007F80040EAC50080EA900404F0332480EA8400CB
:10080800604001F0E03401F0103501F00F3141EAA9
:10081800540141EAC50181EA910404F0332481EAD4
:100828008401614002F0E03402F0103502F00F322A
:1008380042EA540242EAC50282EA920404F03324EE
:1008480082EA8402624003F0E03403F0103503F0DA
:100858000F3343EA540343EAC50383EA930404F0DD
:10086800332483EA8403634081EA324787EA1345E5
:1008780081EA354690EA060484EA034B82EA1B4281
:1008880080EA044484EA054483EA144A85EA144465
:100898008BEA044B84EA374481EA0B4181EA16412A
:1008A80004EA0A00454082EA04082BEA08004140AD
:1008B8008AEA0B0602EA060084EA34438AEA3A46E0
:1008C80003EA060778404540414088EA38478BEA02
:1008D8003B4007EA000985EA090583EA070946401B
:1008E80006EA0906714085EA010005EA35464640F0
:1008F80006EA314181EA304181EA364606EA304665
:1009080086EA3546344008EA010886EA01052A40A5
:1009180086EA364003405A4081EA31431F407C4012
:1009280080EA030709EA070988EA0908544088EABF
:10093800020806EA0A0601EA0B018AEA0B021540D8
:100948008AEA3A42104045408BEA3B4003405E4009
:100958004240174079404D404E40E443F64386EA12
:1009680018435D4085EA054083EA134386EA03415C
:1009780083EA384284EA114383EA04435FEA334353
:10098800BEF1010E3FF6F2AE1ED4BCE8F0006040A6
:10099800694072407B4020BCFFF784FE2860696094
:1009A800AA60EB60BDE8F08F2DE9E0414FF2F0025C
:1009B80080EA1031114080EA01304840410882083D
:1009C800C3084FF0000E4FE700F0113001F011316D
:1009D80002F0113203F0113340EA410040EA82008C
:1009E80040EAC3004FF2F00280EA1031114080EA79
:1009F80001304840BDE8E0812DE9F04F02F11C05C7
:100A08000646074600EB850851F8040B043A46F8F9
:100A1800040BF9D14FF0010CFFF7C6FF5FEA302055
:100A280080EA0C001ECF41404A4053405C401EC63D
:100A38002000464517D04FEA4C0C1CF4807F18BFA5
:100A4800ACF1E50C2C2DE7D03C2D06D1FFF7ACFF1F
:100A580006CF41404A4006C6100006CF41404A40F2
:100A680006C61000D8E736E90F00FFF7C5FD043DBC
:100A780086E80F00F7D1BDE8F08F00BF2DE9F00739
:100A880091E8F807B2E802105B1854EB0C04B2E8DE
:100A980002104D4156EB0C06B2E802104F4158EBDC
:100AA8000C08B2E8021059EB01095AEB0C0A80E86D
:100AB800F80780410130BDE8F00770472DE9F007DD
:100AC80091E8F807B2E802105B1A74EB0C04B2E87C
:100AD80002108D4176EB0C06B2E802108F4178EBDC
:100AE8000C08B2E8021079EB01097AEB0C0A80E8ED
:100AF800F80780414042BDE8F00770472DE9F0074C
:100B0800524290E87800B1E880071740DB1918EAEC
:100B1800020854EB080419EA020955EB09051AEA18
:100B2800020A56EB0A0678C090E87800B1E8800718
:100B380017407B4118EA020854EB080419EA020935
:100B480055EB09051AEA020A56EB0A0678C08041F5
:100B58000130BDE8F00770472DE9F007524290E8F0
:100B68007800B1E880071740DB1B18EA020874EB2D
:100B7800080419EA020975EB09051AEA020A76EB74
:100B88000A0678C090E87800B1E880071740BB41B2
:100B980018EA020874EB080419EA020975EB09055A
:100BA8001AEA020A76EB0A0678C080414042BDE89C
:100BB800F00770472DE9F00152424FF0040890E821
:100BC800300091E8C000A31B1340E41AF618EB1B91
:100BD8001340ED1AFF1830C0C0C1B8F10108EED1BA
:100BE800BDE8F001704700BF00B592EC080AB1E813
:100BF800805707EE101A53EC102A56EC114AA7FB3F
:100C08000251A8FB020BE7FB6310E9FB62B041EC61
:100C1800145AA8FB0351EAFB6201E7FB64B5E7FB42
:100C28006605E8FB661505EE10BAA9FB03B6EAFBF4
:100C38006316ECFB6356E8FB640BE9FB641BEAFBF9
:100C4800645BECFB646B05EE900AACFB023012EEC1
:100C5800104AEEFB6250E9FB6460EAFB64B0E7FB14
:100C68006431E8FB645112EE904AE8FB6461E9FBE9
:100C780064B1EAFB640106EE103AA7FB043213EEF6
:100C8800104AE7FB6462E8FB64B2E9FB6402EAFB32
:100C9800641211EE904AE9FB6453EAFB646313EEB5
:100CA800904AE7FB64B3E8FB6403E9FB6413EAFBDF
:100CB800642306EE905A17EE109A99E8000610EE93
:100CC800108AA9FB0854EAFB68B412EE108AECFB00
:100CD8006804EEFB6814E9FB6824EAFB683410EE4C
:100CE800908AEEFB6865E9FB68B5EAFB680512EED9
:100CF800908AECFB6815EEFB6825E9FB6835EAFB92
:100D0800684507EE106A11EE108AAEFB0876E9FB1B
:100D18006806EAFB681613EE108AECFB6826EEFB01
:100D28006836E9FB6846EAFB685611EE908AECFBE8
:100D380068B7EEFB6807E9FB6817EAFB682713EE5C
:100D4800908AECFB6837EEFB6847E9FB6857EAFBDB
:100D5800686700BD2DE9F04F07EE900AFFF744FFE2
:100D680017EE908A07EE90BAA8EC084A88E8FF00C8
:100D7800BDE8F08F00B591E89857A3FB0352A3FB99
:100D88000401E3FB6420E3FB671042EC145AA3FB65
:100D98000752E3FB6802E4FB6415E3FB6805E3FB29
:100DA8006925A4FB07B6E3FB6926E3FB6A56E4FB67
:100DB800670BE4FB682BE3FB6A5BE3FB6C6B40ECC3
:100DC800151AA4FB0810E4FB6950E3FB6C60E3FB15
:100DD8006EB0E7FB6721E4FB6951E4FB6A61E3FB62
:100DE8006EB1E4FB6E0106EE102AA7FB0832E4FBA5
:100DF8006A62E4FB6CB2E4FB6E02E7FB6E12E7FB8F
:100E08006853E7FB6963E4FB6CB3E7FB6C03E7FB40
:100E18006E13E8FB6E2306EE905AA7FB0954E7FB16
:100E28006AB4E7FB6C04E8FB6C14E8FB6E24E9FB8E
:100E38006E34E8FB6865E7FB6AB5E8FB6A05E8FB22
:100E48006C15E9FB6C25E9FB6E35EAFB6E4507EE90
:100E5800106AA8FB0976E8FB6A06E9FB6A16E9FB53
:100E68006C26EAFB6C36EAFB6E46ECFB6E56E8FB3A
:100E780069B7E9FB6907E9FB6A17EAFB6A27EAFB36
:100E88006C37ECFB6C47ECFB6E57EEFB6E6700BDF6
:100E98002DE9F04F07EE900AFFF76CFF17EE908AE6
:100EA80007EE90BAA8EC084A88E8FF00BDE8F08F82
:100EB80030B44FF0000310F8014B11F8015B013A10
:100EC80084EA050443EA0403F5D1A3F101034FEAD8
:100ED800D37030BC704700BF4FF0000310F8012BEF
:100EE800013943EA0203F9D1A3F101034FEAD370B0
:100EF800704700BF30B411F8014B12F8015B6C4029
:100F080000F8014B013BF6D130BC70472DE9F04F9A
:100F180090E8F00F00F140004FF0040E59E0F0B4F3
:100F2800826BC36B04680525242687593C444FEA25
:100F3800724787EAF24787EA92273C4442684FEAB9
:100F4800F21787EAB24787EAD2073C4440F8044BD5
:100F5800032D08BF6FF01B0687593A444FEA7347C1
:100F680087EAF34787EA93273A4443684FEAF31737
:100F780087EAB34787EAD3073A4440F8042B8759EE
:100F88003B444FEA744787EAF44787EA94273B448F
:100F980044684FEAF41787EAB44787EAD4073B4422
:100FA80040F8043B013DC0D1A0F13C00076A3C4435
:100FB8004FEA724787EAF24787EA92273C44026879
:100FC8004FEAF21787EAB24787EAD2073C44C4637C
:100FD800F0BC4FF0020288EA781C8CEAF84C0BEB64
:100FE800BC1C8AEA090303EA080383EA0A039C444F
:100FF80050F8043B9C4451F8043B9C44674444EA41
:10100800050B0BEA060B04EA05034BEA030BE34462
:1010180084EAF42383EA34530BEBB30B87EA771C97
:101028008CEAF74C0AEBBC1C89EA080303EA0703BD
:1010380083EA09039C4450F8043B9C4451F8043B60
:101048009C4466444BEA040A0AEA050A0BEA0403CC
:101058004AEA030AE2448BEAFB2383EA3B530AEB9E
:10106800B30A86EA761C8CEAF64C09EBBC1C88EAC3
:10107800070303EA060383EA08039C4450F8043B89
:101088009C4451F8043B9C4465444AEA0B0909EA2C
:1010980004090AEA0B0349EA0309E1448AEAFA2344
:1010A80083EA3A5309EBB30985EA751C8CEAF54CD7
:1010B80008EBBC1C87EA060303EA050383EA070377
:1010C8009C4450F8043B9C4451F8043B9C446444C1
:1010D80049EA0A0808EA0B0809EA0A0348EA030881
:1010E800E04489EAF92383EA395308EBB30884EA30
:1010F800741C8CEAF44C07EBBC1C86EA050303EA73
:10110800040383EA06039C4450F8043B9C4451F8CA
:10111800043B9C44E34448EA090707EA0A0708EA4B
:10112800090347EA0307674488EAF82383EA385340
:1011380007EBB3078BEA7B1C8CEAFB4C06EBBC1C69
:1011480085EA040303EA0B0383EA05039C4450F889
:10115800043B9C4451F8043B9C44E24447EA08069B
:1011680006EA090607EA080346EA0306664487EA28
:10117800F72383EA375306EBB3068AEA7A1C8CEA2C
:10118800FA4C05EBBC1C84EA0B0303EA0A0383EA66
:1011980004039C4450F8043B9C4451F8043B9C4491
:1011A800E14446EA070505EA080506EA070345EAB1
:1011B8000305654486EAF62383EA365305EBB3054F
:1011C80089EA791C8CEAF94C04EBBC1C8BEA0A030B
:1011D80003EA090383EA0B039C4450F8043B9C444C
:1011E80051F8043B9C44E04445EA060404EA070439
:1011F80005EA060344EA0304644485EAF52383EA1E
:10120800355304EBB304013A7FF4E5AEA0F1400096
:10121800BEF1010E7FF483AEA0F1400C9CE80F00F4
:10122800001949199219DB19ACE80F009CE80F0066
:101238004044494452445B44ACE80F00BDE8F08F99
:101248002DE9F00791E8F807B2E802105B1854EBB3
:101258000C04B2E802104D4156EB0C06B2E802103D
:101268004F4158EB0C08B2E8021059EB01095AEB50
:101278000C0A8941B3F1FF3374F1FF3475F1FF357E
:1012880076F1000677F1000778F1000879F1010995
:101298007AF1FF3A51F100015B184C414D4156F18A
:1012A800000657F1000758F1000859EBD1795AEBBD
:1012B800010A80E8F807BDE8F00770472DE9F00754
:1012C80091E8F807B2E802105B1A74EB0C04B2E874
:1012D80002108D4176EB0C06B2E802108F4178EBD4
:1012E8000C08B2E8021079EB01097AEB0C0A894183
:1012F8005B184C414D4156F1000657F1000758F173
:10130800000859EBD1795AEB010A80E8F807BDE8E3
:10131800F007704718EB040859EB05095AEB060A61
:101328005BEB070B5FF0000C4CF1000C18EB0508A9
:1013380059EB06095AEB070A5BEB070B50EB0C005D
:101348005FF0000C51EB0C0152EB0C0263414CF1C5
:10135800000CB8EB070879F100097AF1000A7BEB79
:10136800040BA841B141A241B3416CF1000CBBEBA5
:10137800050BB041B941AA41BB416CF1000C4CF0DE
:1013880001068CF0020718EB060859EB6C095AEBBA
:101398006C0A7BEB6C0B70EB6C0471EB6C0572EBFD
:1013A800670653EB6C076CEB6C0C18EB0C0059EBF5
:1013B8000C015AEB0C025BF1000354F1000455F1E7
:1013C800000556EBDC7657EB0C0770472DE9F04F1C
:1013D80007EE900AFFF708FC59EC168A17EE10AAD8
:1013E800FFF798FF59EC148A5BEC15AAFFF792FFF8
:1013F80017EE908A88E8FF00BDE8F08F2DE9F04FDE
:1014080007EE900AFFF7B6FC59EC168A17EE10AAF9
:10141800FFF780FF59EC148A5BEC15AAFFF77AFFF7
:1014280017EE908A88E8FF00BDE8F08F81F0004150
:1014380002E000BF83F0004330B54FEA41044FEAB1
:10144800430594EA050F08BF90EA020F1FBF54EA4C
:10145800000C55EA020C7FEA645C7FEA655C00F0E8
:10146800E2804FEA5454D4EB5555B8BF6D420CDDB9
:101478002C4480EA020281EA030382EA000083EA3C
:10148800010180EA020281EA0303362D88BF30BDDC
:1014980011F0004F4FEA01314FF4801C4CEA113132
:1014A80002D0404261EB410113F0004F4FEA033391
:1014B8004CEA133302D0524263EB430394EA050F1C
:1014C80000F0A780A4F10104D5F1200E0DDB02FA8B
:1014D8000EFC22FA05F2801841F1000103FA0EF21F
:1014E800801843FA05F359410EE0A5F120050EF1E5
:1014F800200E012A03FA0EFC28BF4CF0020C43FA16
:1015080005F3C01851EBE37101F0004507D54FF022
:10151800000EDCF1000C7EEB00006EEB0101B1F572
:10152800801F1BD3B1F5001F0CD349085FEA3000B8
:101538004FEA3C0C04F101044FEA445212F5800FC3
:1015480080F09A80BCF1004F08BF5FEA500C50F160
:10155800000041EB045141EA050130BD5FEA4C0C43
:10156800404141EB0101013C28BFB1F5801FE9D2A0
:1015780091F0000F04BF01460020B1FA81F308BFC3
:101588002033A3F10B03B3F120020CDA0C3208DD8F
:1015980002F1140CC2F10C0201FA0CF021FA02F16A
:1015A8000CE002F11402D8BFC2F1200C01FA02F1DA
:1015B80020FA0CFCDCBF41EA0C019040E41AA2BFFF
:1015C80001EB0451294330BD6FEA04041F3C1CDAC7
:1015D8000C340EDC04F11404C4F1200220FA04F0E7
:1015E80001FA02F340EA030021FA04F345EA030191
:1015F80030BDC4F10C04C4F1200220FA02F001FA53
:1016080004F340EA0300294630BD21FA04F02946D4
:1016180030BD94F0000F83F4801306BF81F480116D
:101628000134013D4EE77FEA645C18BF7FEA655CE0
:1016380029D094EA050F08BF90EA020F05D054EAB2
:10164800000C04BF1946104630BD91EA030F1EBFB7
:101658000021002030BD5FEA545C05D140004941BB
:1016680028BF41F0004130BD14F580043CBF01F5AE
:10167800801130BD01F0004545F0FE4141F4700194
:101688004FF0000030BD7FEA645C1ABF194610466F
:101698007FEA655C1CBF0B46024650EA013406BF70
:1016A80052EA033591EA030F41F4002130BD00BF2F
:1016B80090F0000F04BF0021704730B54FF48064EC
:1016C80004F132044FF000054FF0000150E700BF6D
:1016D80090F0000F04BF0021704730B54FF48064CC
:1016E80004F1320410F0004548BF40424FF00001B9
:1016F8003EE700BF42004FEAE2014FEA31014FEAFC
:1017080002701FBF12F07F4393F07F4F81F060514A
:10171800704732F07F4208BF704793F07F4F04BF95
:1017280041F40021704730B54FF4607401F0004572
:1017380021F000411CE700BF50EA010208BF7047D2
:1017480030B54FF000050AE050EA010208BF7047C3
:1017580030B511F0004502D5404261EB41014FF42C
:10176800806404F132045FEA915C3FF4D8AE4FF034
:1017780003025FEADC0C18BF03325FEADC0C18BF17
:10178800033202EBDC02C2F1200300FA03FC20FA68
:1017980002F001FA03FE40EA0E0021FA02F11444B5
:1017A800BDE600BF70B54FF0FF0C4CF4E06C1CEACE
:1017B80011541DBF1CEA135594EA0C0F95EA0C0F3F
:1017C80000F0DEF82C4481EA030621EA4C5123EAB2
:1017D8004C5350EA013518BF52EA033541F48011E1
:1017E80043F4801338D0A0FB02CE4FF00005E1FB94
:1017F80002E506F00042E0FB03E54FF00006E1FBDE
:1018080003569CF0000F18BF4EF0010EA4F1FF0420
:10181800B6F5007F64F5407404D25FEA4E0E6D4160
:1018280046EB060642EAC62141EA55514FEAC52071
:1018380040EA5E504FEACE2EB4F1FD0C88BFBCF5ED
:10184800E06F1ED8BEF1004F08BF5FEA500E50F19E
:10185800000041EB045170BD06F0004646EA010164
:1018680040EA020081EA0301B4EB5C04C2BFD4EB96
:101878000C0541EA045170BD41F480114FF0000E8F
:10188800013C00F3AB8014F1360FDEBF002001F0FD
:10189800004170BDC4F10004203C35DA0C341BDC77
:1018A80004F11404C4F1200500FA05F320FA04F049
:1018B80001FA05F240EA020001F0004221F000417D
:1018C80010EBD37021FA04F642EB06015EEA430EF0
:1018D80008BF20EAD37070BDC4F10C04C4F1200520
:1018E80000FA04F320FA05F001FA04F240EA0200D3
:1018F80001F0004110EBD37041F100015EEA430EA4
:1019080008BF20EAD37070BDC4F1200500FA05F2C3
:101918004EEA020E20FA04F301FA05F243EA020342
:1019280021FA04F001F0004121FA04F220EA020051
:1019380000EBD3705EEA430E08BF20EAD37070BD97
:1019480094F0000F0FD101F00046400041EB010177
:1019580011F4801F08BF013CF7D041EA060195F059
:10196800000F18BF704703F00046520043EB030313
:1019780013F4801F08BF013DF7D043EA0603704700
:1019880094EA0C0F0CEA135518BF95EA0C0F0CD00B
:1019980050EA410618BF52EA4306D1D181EA030151
:1019A80001F000414FF0000070BD50EA410606BF4B
:1019B8001046194652EA430619D094EA0C0F02D190
:1019C80050EA013613D195EA0C0F05D152EA0336D5
:1019D8001CBF104619460AD181EA030101F00041F3
:1019E80041F0FE4141F470014FF0000070BD41F03C
:1019F800FE4141F4780170BD70B54FF0FF0C4CF416
:101A0800E06C1CEA11541DBF1CEA135594EA0C0F34
:101A180095EA0C0F00F0A7F8A4EB050481EA030E81
:101A280052EA03354FEA013100F088804FEA033368
:101A38004FF0805545EA131343EA12634FEA022236
:101A480045EA111545EA10654FEA00260EF00041F7
:101A58009D4208BF964244F1FD0404F5407402D249
:101A68005B084FEA3202B61A65EB03055B084FEADA
:101A780032024FF480104FF4002CB6EB020E75EBD7
:101A8800030E22BFB61A754640EA0C005B084FEAFF
:101A98003202B6EB020E75EB030E22BFB61A75467C
:101AA80040EA5C005B084FEA3202B6EB020E75EBC7
:101AB800030E22BFB61A754640EA9C005B084FEA3F
:101AC8003202B6EB020E75EB030E22BFB61A75464C
:101AD80040EADC0055EA060E18D04FEA051545EA3B
:101AE80016754FEA06164FEAC30343EA52734FEAE4
:101AF800C2025FEA1C1CC0D111F4801F0BD141EA5D
:101B080000014FF000004FF0004CB6E711F4801FC1
:101B180004BF01430020B4F1FD0C88BFBCF5E06FA1
:101B28003FF6AFAEB5EB030C04BFB6EB020C5FEAB1
:101B3800500C50F1000041EB045170BD0EF0004E06
:101B48004EEA113114EB5C04C2BFD4EB0C0541EA38
:101B5800045170BD41F480114FF0000E013C90E635
:101B680045EA060E8DE60CEA135594EA0C0F08BFF9
:101B780095EA0C0F3FF43BAF94EA0C0F0AD150EAF8
:101B880001347FF434AF95EA0C0F7FF425AF10468B
:101B980019462CE795EA0C0F06D152EA03353FF4B3
:101BA800FDAE1046194622E750EA410618BF52EA30
:101BB80043067FF4C5AE50EA41047FF40DAF52EA04
:101BC80043057FF4EBAE12E74FF0FF3C06E000BFA1
:101BD8004FF0010C02E000BF4FF0010C4DF804CDAE
:101BE8004FEA410C7FEA6C5C4FEA430C18BF7FEA6E
:101BF8006C5C1BD001B050EA410C0CBF52EA430C9C
:101C080091EA030F02BF90EA020F0020704710F11B
:101C1800000F91EA030F58BF994208BF90422CBFAA
:101C2800D8176FEAE37040F0010070474FEA410CA3
:101C38007FEA6C5C02D150EA013C07D14FEA430CC1
:101C48007FEA6C5CD6D152EA033CD3D05DF8040B32
:101C5800704700BF8446104662468C461946634664
:101C680000E000BF01B5FFF7B7FF002848BF10F13B
:101C7800000F01BD4DF808EDFFF7F4FF0CBF012080
:101C880000205DF808FB00BF4DF808EDFFF7EAFFFC
:101C980034BF012000205DF808FB00BF4DF808EDB7
:101CA800FFF7E0FF94BF012000205DF808FB00BFAC
:101CB8004DF808EDFFF7CEFF94BF012000205DF836
:101CC80008FB00BF4DF808EDFFF7C4FF34BF012043
:101CD80000205DF808FB00BF4FEA410C7FEA6C5C0E
:101CE80002D150EA013C0AD14FEA430C7FEA6C5C0E
:101CF80002D152EA033C02D14FF0000070474FF086
:101D0800010070474FEA410212F5001215D211D5B1
:101D18006FF47873B3EB625212D94FEAC12343F0E0
:101D2800004343EA505311F0004F23FA02F018BF62
:101D3800404270474FF00000704750EA013005D12B
:101D480011F0004008BF6FF0004070474FF00000EE
:101D5800704700BF4A0011D212F5001211D20DD5FA
:101D68006FF47873B3EB62520ED44FEAC12343F099
:101D7800004343EA505323FA02F070474FF0000043
:101D8800704750EA013002D14FF0FF3070474FF0F2
:101D9800000070474FEA4102B2F1E04324BFB3F5B7
:101DA800001CDCF1FE5C0DD901F0004C4FEAC002CA
:101DB8004CEA5070B2F1004F40EB830008BF20F0AE
:101DC8000100704711F0804F21D113F13872BCBF68
:101DD80001F00040704741F480114FEA5252C2F1BD
:101DE8001802C2F1200C10FA0CF320FA02F018BF06
:101DF80040F001004FEAC1234FEAD32303FA0CFC59
:101E080040EA0C0023FA02F34FEA4303CCE77FEAE7
:101E1800625307D150EA01331EBF4FF0FE4040F431
:101E28004000704701F0004040F0FE4040F40000E0
:101E3800704700BF7BB972B90029BEBF00204FF0C0
:101E4800004106E008BF00281CBF6FF000414FF0BA
:101E5800FF3000F075B8ADF1080C6DE904CE00292B
:101E680009DB002B1ADB00F096F8DDF804E0DDE969
:101E7800022304B07047404261EB4101002B1BDB99
:101E880000F089F8DDF804E0DDE9022304B04042FF
:101E980061EB4101524263EB43037047524263EBEB
:101EA800430300F078F8DDF804E0DDE9022304B02C
:101EB800404261EB41017047524263EB430300F03B
:101EC8006AF8DDF804E0DDE9022304B0524263EB6E
:101ED8004303704753B94AB9002908BF00281CBFFB
:101EE8004FF0FF314FF0FF3000F02AB8ADF1080C89
:101EF8006DE904CE00F04FF8DDF804E0DDE90223D7
:101F080004B07047D0B500220B4B06460F46FFF7CA
:101F180049FCFFF71FFF0446FFF7CAFB0022074BE7
:101F2800FFF740FC02460B4630463946FFF782FA77
:101F3800FFF710FF2146D0BD0000F03D0000F04142
:101F4800704700BF10F8012B11F8013B012A28BF88
:101F58009A42F7D0D01A7047034613F8012B002A8B
:101F6800FBD1181A0138704738B5002200230446FF
:101F78000D46FFF789FE28B920462946BDE83840B6
:101F8800FFF7C0BF204605F10041FFF7BBFF404205
:101F980061EB410138BD2DE9F04786468C4608467D
:101FA800089E154674461946002B40F0C1808542AC
:101FB800B2FA82F245D94AB1C2F1200300FA02FC12
:101FC800954094402EFA03F343EA0C0C4FEA154E61
:101FD800A8B2230CBCFBFEF80EFB18CC08FB00F9DA
:101FE80043EA0C43994528D9EB1808F1FF3704D286
:101FF800994502D9A8F102072B44A3EB0903A4B21F
:10200800B3FBFEFC0EFB1C330CFB00F044EA03445C
:10201800A04214D92C190CF1FF3304D2A04202D9E2
:10202800ACF102032C44241A43EA07401EB1D44001
:10203800002334607360BDE8F0874746DDE76346F8
:10204800F1E792BB431B01214FEA154EAFB2200CBA
:10205800B3FBFEFC0EFB1C330CFB07F840EA034302
:10206800984561D9EB180CF1FF3004D2984502D994
:10207800ACF102002B44A3EB0803A4B2B3FBFEFCB3
:102088000EFB1C330CFB07F744EA0344A7424DD967
:102098002C190CF1FF3304D2A74202D9ACF1020388
:1020A8002C44E41B43EA0040C0E7C2F120039540FA
:1020B800944020FA03F12EFA03F34FEA154E9040AC
:1020C800AFB20343B1FBFEFC0EFB1C10190C0CFB5A
:1020D80007F841EA0041884522D969180CF1FF3018
:1020E80004D2884502D9ACF102002944A1EB0801C9
:1020F8009BB2B1FBFEFC0EFB1C110CFB07F743EA7D
:1021080001439F420ED9EB180CF1FF3104D29F42D4
:1021180002D9ACF102012B44DB1B41EA004193E7F1
:102128006046E3E76146F7E76046A4E76346B8E739
:10213800834206D916B9002108467CE7C6E900E0C3
:10214800F9E7B3FA83F78FB9834201D3724508D808
:10215800BEEB020460EB030301209C461EB900217C
:1021680069E73846FAE7C6E9004CF8E7C7F1200CFA
:10217800BB400EFA07F522FA0CF42EFA0CF1BA401D
:102188001C4320FA0CF3B8404FEA144901431FFAE4
:1021980084FEB3FBF9F809FB18300B0C08FB0EFAA8
:1021A80043EA00439A4540D9E31808F1FF3004D2C6
:1021B8009A4502D9A8F102002344A3EB0A0389B285
:1021C800B3FBF9F809FB183308FB0EFE41EA03419B
:1021D8008E452CD9611808F1FF3304D28E4502D9F7
:1021E800A8F10203214443EA0040A1EB0E01A0FB41
:1021F80002984145CE46434602D306D14D4504D206
:102208000138B9EB020E68EB0403002EA7D0B5EB3A
:102218000E0261EB030101FA0CFC22FA07F3F94004
:102228004CEA0303C6E9003199E74046C5E743464F
:10223800D9E70000000000002DE9F04F83B0784B8B
:10224800456804469D4200AF30D0764B9D423BD056
:10225800754B9D4240F0BE80744B82689A4204D010
:1022680000200C37BD46BDE8F08F037B002BF7D16B
:102278006F4C2378002B40F0C3806E4A6E48137869
:1022880043F00403137028F0F9FE002840F0898019
:102298000223102023700EF065FD00B14560002375
:1022A800664A037382600EF075FED9E78068644958
:1022B800EB46884202D0FFF745FE18B95C4E3378EA
:1022C800012B1CD0DD46CBE7594E037A327863B92F
:1022D800022AC5D1574B1B781A0703D49B0774D41D
:1022E80006F046FD01233370BAE7012AB8D106F09B
:1022F80075FD08B11030B3D102233370B0E7E1683F
:10230800480773D14FEAD1094FEA890A0AF107034E
:1023180023F00703ADEB030DE846B9F1000F24D015
:10232800C7E9008B4546CB46C2446069FFF7D0F940
:1023380039A3D3E90023FFF75FFB8046206989466C
:10234800FFF7C6F902460B4640464946FFF774F8C0
:10235800FFF720FD45F8040BAA4504F10804E4D171
:10236800D946D7F80080D7F804B04946404628F047
:102378007DFC0028A6D001210346324A32480CF0E1
:10238800B7FD0323102033700EF0ECFC08B1264B88
:1023980043600323294A037382600EF0FBFDDD4688
:1023A8005EE701210346294A27480CF0A1FD0323D3
:1023B800102023700EF0D6FC00B1456003231F4A9D
:1023C800037382600EF0E6FD4AE706F007FD002879
:1023D80086D087E71E491F4840F22D131E4A09F090
:1023E800EDFA40F22D111C4809F0DEFA1B49194894
:1023F8007C231B4A09F0E2FA7C21194809F0D4FA37
:102408001849144840F20B13134A09F0D7FA40F25E
:102418000B11114809F0C8FA0000000080842E4111
:102428003C720600AC710600DC7106002C740600D4
:1024380069AD00206AAD0020A58E01003874060041
:10244800E48B050070930500B07F050098930500A4
:1024580078490600C8890500B8920500288C05004F
:10246800F48B0500608D05002DE9F04F4E0087B014
:1024780046D0002490469B4625460390E20706F185
:10248800FF33ABEB050708EB050915D5A342484612
:102498000BBF39463946204A204A41F04BFD0028F7
:1024A80004F10104054404DBB8422BD2B442E5D15F
:1024B800284607B0BDE8F08F039B4FEA540A03EBA8
:1024C800CA035868FFF704F911A3D3E90023FFF7FB
:1024D80093FA02460B460399CDE9042351F83A00D2
:1024E800FFF7F6F802460B46DDE90401FEF7A4FF04
:1024F8000B4ACDE900014846394641F01BFDCEE7BD
:102508003046D6E76FF06800D3E700BFAFF300802E
:102518000000000080842E41DC5706004C95050021
:1025280044950500000000002DE9F04F406889B08F
:1025380004688C4257D9D31855D24FF47A75A3FB47
:102548000543002B4FD1A2FB05320393002A4AD141
:1025580043680A0103EB01119E588B89D1F8048066
:102568000493B368414630465B6806AA984700283A
:1025780033DB05FB04F3DDE9064BA3FB049203FB05
:102588000B271BA3D3E900234FF0FF3A48463946EF
:10259800FFF7A0FC184BCA45BB41059020D314A3F4
:1025A800D3E90023039905FB01F1A1FB045401FBC6
:1025B8000B4428462146FFF78DFC0F4AAA4572EBCB
:1025C800040403460CD3059AB46882420BD30499D9
:1025D8003046009124684146A04709B0BDE8F08F15
:1025E8006FF08500F9E76FF01500F6E7AFF30080AC
:1025F80000CA9A3B00000000FFC99A3B0000000097
:102608002DE9F04F436814461A6889B08A426DD99B
:10261800642C6BD85B680A0103EB01119F588B8906
:10262800D1F804A08D680393BB68514638465B68AF
:1026380006AA9847002856DBDDE90663A5FB06B81D
:1026480005FB03884FF0FF394146049358462AA3F7
:10265800D3E90023FFF73EFC294AD94572EB080865
:10266800059046D3A4FB05544FEA155C4CEA043C9C
:10267800244AC5F313036344A2FB03C2D20802EB46
:10268800820202EB82029B1A1F49EB1A03FB01F13B
:102698001E4864F1000400FB0411A3FB0030049CF5
:1026A8000144980840EA817000FB04F412A3D3E9BE
:1026B8000023890806FB0144A0FB06600444214668
:1026C8003046FFF707FC0E4AB14572EB0404034697
:1026D8000FD3059ABC68824208D303993846009103
:1026E80024685146A04709B0BDE8F08F6FF0150087
:1026F800F9E76FF08500F6E700CA9A3B0000000092
:10270800FFC99A3B1F85EB51F5285C8F295C8FC266
:10271800F8B50F461646016942680C68117A1568C3
:1027280000293FD194F86120CABB94F8622002F0D6
:10273800FF01A2BB581C01D0042B1EDC002001465F
:102748009FED217B002384ED147B0122C4E916014F
:10275800C4E91076C4E91233C5F83475C5F838658C
:10276800C5F81031D5F81011C5F84C311846D5F810
:102778004C3184F861202A60F8BD4FF40040A2F182
:10278800993282FB03C2DB17C3EB6203104AC3FB17
:102798000021002310460F4AFFF79CFBD0E76FF09B
:1027A8000F00F8BD0C4940F21F430C4A0C4809F0D1
:1027B80005F90C4809F002F940F21F41074809F0F1
:1027C800F3F800BFAFF30080000000000000000035
:1027D8003F420F0040420F007849060024010600DE
:1027E800C889050058010600436B59681A690B68C7
:1027F8001068D3F808219AB10022C3F80821D3F849
:102808000831426500B59FED0A7BD0E9162383B0F5
:102818008DED007B083037F0B9FC03B05DF804FBA0
:10282800426D0132042A4265ECD101225A60704798
:1028380000000000000000002DE9F84300229FED91
:102848002C7B02204FF480364FF400182A4C2B4B77
:102858002B4FC4F80833C4F848332A4BC4F808256A
:10286800012183ED027BC4F80463C4F80403152036
:10287800C7F880810FF0CCFC15200FF099FC0123DC
:10288800214DA36023602B60D5E8EF9F29F0010359
:10289800C5E8E23F002AF7D1C4F80863BFF35F8FA9
:1028A800BFF36F8F0021194824F06AFF19F0010F58
:1028B80005D1022022F042F80020BDE8F883D5E8CF
:1028C800EF3F43F00103C5E8E23F002AF7D1104B80
:1028D800C4F80463D3E8AF3FDB074FF0020048BFFA
:1028E800C7F8008122F02AF80020BDE8F88300BF6D
:1028F800FFFFFFFFFFFFFFFF0050015003000F0025
:1029080000E100E040520020CC900020FFFF7F0053
:10291800C890002000000000414BD3F80423900722
:1029280005D43F4BD3F80423D10312D47047D3F80E
:102938000421002AF5D000213A4AC3F80411D3F83B
:102948000431136801331360354BD3F80423D103E2
:10295800ECD5F0B5344A83B0D2E8EF1F21F001007E
:10296800C2E8E40F002CF7D1CA0704D4D3F84031E9
:102978000BB903B0F0BD0021294A2A4BC2F8401117
:10298800D2F840111B68190A1B06BFF35F8FD2F8F3
:102998000425D31841F10001B2F5801F0AD2234A59
:1029A800D2E90067B34271EB070203D213F18073D7
:1029B80041F10001EFF3118C202282F31288BFF35A
:1029C8006F8F1B4CD4E90267B342B9411CD39FED0A
:1029D800127B00204FF4803284ED027B104B21687B
:1029E80065682060C3F84823C3F84001D3F8403134
:1029F8008CF31188BFF36F8F0029BAD032463B465B
:102A08000095884703B0F0BD8CF31188BFF36F8F32
:102A180003B0F0BDAFF30080FFFFFFFFFFFFFFFF34
:102A280000500150D0900020C8900020585200203B
:102A380040520020000000002DE9F04F2DED028BE0
:102A4800044699B010EE900A10EE107A15461593C8
:102A58001691FEF74FFEBAA3D3E90023FEF7A2FEB4
:102A68000246384616460F46FEF744FE02460B4617
:102A780030463946FEF7C0FF41EC100B04F090FADF
:102A880051EC100BFFF786F908EE100AFEF732FE3C
:102A98000B4661100E46024608913046042117463F
:102AA800984637F007FE0346042130460A9337F06C
:102AB80001FE034604213046099337F0FBFD034627
:102AC800042130460B9337F0F5FD034604213046C8
:102AD8000C9337F0EFFD0346042130460D9337F091
:102AE800E9FD28EE088A1490002E00F09680204612
:102AF800FEF7EEFD02460B46FEF79EFCDDE909B93E
:102B08003A464346CDE90E0138464146FEF794FC65
:102B1800F7EE007A77EEC87ACDE9100117EE900A41
:102B2800FEF7E8FD02460B46FEF786FC02460B461A
:102B3800002718EE100ACDE91223FEF7DBFDDFF8B7
:102B48000882DDF82CA0CDE90078CDF81490002695
:102B5800D146D846CDE9020117953046FEF7B8FDB3
:102B680002460B46FEF768FCDDE90023FEF764FC2D
:102B780073A3D3E90023FEF715FEDDE90E23FEF764
:102B88003BFF41EC100B04F0B7F951EC100BFFF7C9
:102B980001F9FEF7AFFDDDE91023FEF703FEDDE9DD
:102BA800022382468B46CDE906ABFEF745FCDDE9FC
:102BB8000023FEF741FCFFF7EDF807EE100AC8EE18
:102BC800077A059B0136E3EC017A0593FEF792FD3F
:102BD80082468B46DDE9120152465B46FEF70CFF42
:102BE800FFF7D8F8DDE9062348F8040BDDE9020110
:102BF800FEF720FCDDE90023FEF71EFC01F100458D
:102C08005B4652462946FEF7F7FEFFF7C3F8089BD6
:102C180049F8040BB342A0D1179D159B002B76D021
:102C2800DDE9081303EB8103169A0593159B02EB64
:102C3800830ACDF838A0AA46F2EC017A089BEAECA0
:102C4800017A002B60D0DDE909B70B9ECDF808A00A
:102C5800B946B2460D9C149DDDF83080069201E01D
:102C680052ED017A95ED006ABAEC018AFBEC016A33
:102C780094ED007A28EE068AA6EE878A38EE278A2F
:102C880088ED008A54F8040BFEF734FD02460B4623
:102C9800FEF7D2FBF9EC017A064618EE100ACDEDE4
:102CA800007A0F46FEF726FD02460B4630463946A7
:102CB800FEF7C2FB064655F8040B0F46FEF71AFD51
:102CC80002460B4630463946FEF7B6FB06460098E4
:102CD8000F46FEF70FFD02460B4630463946FEF713
:102CE80061FDFFF757F8029A42F8040C54F8043CC7
:102CF80045F8043C58F8043B44F8043C059B9B45C4
:102D0800AED1DDF808A0069A0E9B934294D10A989A
:102D180037F0D2FC099837F0CFFC0B9837F0CCFC91
:102D28000C9837F0C9FC0D9837F0C6FC149819B008
:102D3800BDEC028BBDE8F04F37F0BEBCAFF30080AE
:102D4800182D4454FB2109400000F03F000000000A
:102D58002DE9F04F2DED028B044699B010EE900A44
:102D680010EE107A154615931691FEF7C3FCBAA318
:102D7800D3E90023FEF716FD0246384616460F46ED
:102D8800FEF7B8FC02460B4630463946FEF734FEDD
:102D980041EC100B04F004F951EC100BFEF7FAFFAC
:102DA80008EE900AFEF7A6FC0B4661100E46024696
:102DB8000891304604211746984637F07BFC0346B5
:102DC800042130460A9337F075FC03460421304647
:102DD800099337F06FFC0346042130460B9337F014
:102DE80069FC0346042130460C9337F063FC034624
:102DF800042130460D9337F05DFC68EEA88A1490E4
:102E0800002E00F098802046FEF762FC02460B4632
:102E1800FEF712FBDDE909B93A464346CDE90E0152
:102E2800B7EE008A38464146FEF706FB78EE687A28
:102E380002460B4617EE900ACDE91023FEF75AFC1E
:102E480002460B46FEF7F8FA02460B46002718EE34
:102E5800900ACDE91223FEF74DFCDFF80482DDF875
:102E68002CA0CDE90078CDF814900026D146D8469C
:102E7800CDE9020117953046FEF72AFC02460B46BB
:102E8800FEF7DAFADDE90023FEF7D6FA72A3D3E9F2
:102E98000023FEF787FCDDE90E23FEF7ADFD41ECCC
:102EA800100B04F029F851EC100BFEF773FFFEF736
:102EB80021FCDDE91023FEF775FCDDE902238246DB
:102EC8008B46CDE906ABFEF7B7FADDE90023FEF73E
:102ED800B3FAFEF75FFF07EE100AC8EE077A059B04
:102EE8000136E3EC017A0593FEF704FC82468B4633
:102EF800DDE9120152465B46FEF77EFDFEF74AFF0A
:102F0800DDE9062348F8040BDDE90201FEF792FA31
:102F1800DDE90023FEF790FA01F100455B465246D1
:102F28002946FEF769FDFEF735FF089B49F8040BB3
:102F3800B342A0D1179D159B002B76D0DDE908136D
:102F480003EB8103169A0593159B02EB830ACDF8D0
:102F580038A0AA46B2EC017A089BAAEC017A002BA9
:102F680060D0DDE909B70B9ECDF808A0B946B24696
:102F78000D9C149DDDF83080069201E012ED017A77
:102F8800D5ED005AFAEC017ABBEC016AD4ED006A7F
:102F980067EEA57AE6EE267A77EE877AC8ED007AAC
:102FA80017EE900AFEF7A6FBF9EC017A064654F8EC
:102FB800040BCDED007A0F46FEF79CFB02460B464C
:102FC800FEF73AFA02460B4630463946FEF732FA21
:102FD800064655F8040B0F46FEF78CFB02460B46D7
:102FE80030463946FEF728FA064600980F46FEF79F
:102FF80081FB02460B4630463946FEF7D3FBFEF707
:10300800C9FE029A42F8040C54F8043C45F8043C02
:1030180058F8043B44F8043C059B9B45AED1DDF8C9
:1030280008A0069A0E9B934294D10A9837F044FB65
:10303800099837F041FB0B9837F03EFB0C9837F0B6
:103048003BFB0D9837F038FB149819B0BDEC028B98
:10305800BDE8F04F37F030BB182D4454FB21094030
:103068000000F03F0000000038B50023044603705C
:10307800EFF31185202383F31288BFF36F8F26485F
:1030880036F0E8FC18B3244836F00AFD234B93F8D1
:103098002027022A18D0012A9FED1D7B08BF227025
:1030A80000221F49144681ED007B0321C3F818272D
:1030B80083F82017184836F0DBFCB0B185F3118887
:1030C800BFF36F8F204638BD6FF00F04F2E78823F7
:1030D800144A1549154808F071FC0F49144808F0BE
:1030E8006DFC88210F4808F05FFC40F231130D4A4F
:1030F80010490E4808F062FC07490F4808F05EFCCA
:1031080040F23111074808F04FFC00BFAFF30080D0
:1031180000000000000000007C7A0020607300209E
:10312800707A0020F898050028990500C8890500DC
:1031380040990500589905007099050000000000A5
:103148002DE9F0412DED028B00239FED5F7B86B0CA
:1031580006460493D0E9003083428DED027B0C468D
:10316800D3ED007A00F0A08004339842B0EE678A6D
:103178001AD01A4692ED007AB4EE487AF1EE10FAB7
:10318800114602F1040248BFB0EE478A9042F1D1DD
:1031980093ED007AB4EE677AF1EE10FA77FE277AAB
:1031A800994203F10403F3D177EEC87A9FED487A88
:1031B800642102A8C7EE878A28F0F4FCD6E9003219
:1031C8009A427CD00022F7EE006A029D03EB82034C
:1031D80093ED007A37EE487AC7EE287AFCEEE77A64
:1031E80017EE903A632B28BF632305EB8303D3EDD7
:1031F800007A77EEA67AC3ED007A0132D6E900317B
:10320800C91AB2EBA10FE1D303994B1B4FEAA308EC
:10321800002B51D02A46DFED2F7A0023B2EC017A39
:103228000133984577EE877AF8D82F462B4605F56F
:10323800C872D3ED006A86EEA77AA3EC017A9A42A7
:10324800F7D10023A94218BF0026019314D0B7EC88
:10325800018AB5EEC08AF1EE10FA06F1010609DD21
:10326800B0EE480A43F00AFADDED017AE8EE407A5A
:10327800CDED017A4645EAD3D4E90113994216D037
:1032880011B1019B0B606168043161603DB1284652
:1032980006B0BDEC028BBDE8F04137F00DBA06B0C0
:1032A800BDEC028BBDE8F081B0EE678A7CE7204672
:1032B80001AA29F043FFE9E7DFED067AB5E7029DA9
:1032C800A2E700BFAFF3008000000000000000008C
:1032D8000000C842000000002DE9F04F8046D0E908
:1032E80000328DB0D01A8DED010A0C4600F0B38182
:1032F80037F0DEF9D8E900329342054600F017822C
:10330800A2EB0309064600EB090708B11A682A6010
:103318000435BD4203F10403F8D1AE4200F0A381A5
:103328004FEAA907B7FA87F2C2F11F0229463046C9
:10333800520024F0C7FDB9F1400F40F3E28106F1D5
:1033480040094946304624F081FDA9451BD049462D
:1033580006F13C000A460346B1EC017AF0EC017A2A
:10336800B4EEE77AF1EE10FA09D5C3ED017A1A4600
:1033780073ED017AB4EEE77AF1EE10FAF5D48D42E6
:1033880082ED007AE6D13846FEF792F9D3A3D3E965
:10339800002382468B46FEF705FAFEF7DBFC37462C
:1033A80006EB8005D4E90136B34200F065811BB114
:1033B8002A681A60D4E901361D1D0022C44B504604
:1033C80059466560FEF7EEF9FEF7C4FCB54207EB17
:1033D800800200F0BF8113682B60D4E901560435E0
:1033E8000022BC4B504659466560FEF7DBF9FEF7F4
:1033F800B1FCB54207EB800200F0C28113682B6074
:10340800D4E901560435B0A3D3E900235046594600
:103418006560FEF7C7F9FEF79DFCB54207EB800231
:1034280000F0C58113682B60D4E9015604350022E9
:10343800A94B504659466560FEF7B4F9FEF78AFC79
:10344800B54207EB800200F0C88113682B606568FD
:1034580004356560D8E90063A3EB060B4FEAAB05BA
:10346800002E00F06F814FF000094FF0010A042090
:103478005146CDF824A008968DF82C900A9537F07F
:1034880019F9D4E9011399428DF81CA0CDF814A0BC
:10349800CDF818A00490824600F04F8111B1019B2D
:1034A8000B60616804316160BBF1040F40F2BE80BB
:1034B800A80800F0C18006F110031A460146DFEDA6
:1034C800897A52ED045A12ED036A77EEA57A52ED25
:1034D800026A77EE867A12ED017A77EEA67A0139DA
:1034E80077EE877A02F11002EBD107EE105A15F049
:1034F8000301F8EE474A06EB001200F09A804FEA03
:10350800810C02EB8103B2EC017A9A4277EE877A5A
:10351800F9D187EEA45A002800F0998006F110032B
:103528000246DFED707A53ED045A13ED036A75EE27
:10353800C55A53ED026A36EE456AE5EEA57A13EDF3
:10354800017A76EEC56AE6EE067A37EE457AE6EE59
:10355800A67A013AE7EE077A03F11003E3D169B1DD
:1035680006EB00134FEA810C03EB0C02B3EC017A73
:1035780037EE457A9342E7EE077AF7D187EEA40A49
:10358800B5EEC00AF1EE10FAC0F2C080B5EE400AFE
:10359800F1EE10FA00F13C81F1EEC07ACAED007A42
:1035A800D4E90113994200F0BA8011B1C1ED007A53
:1035B800616804316160D8E90001091A03AA891019
:1035C80037F0D8F9204603A929F01CFE294603AA9A
:1035D800304637F099F9039BCAF80030D4E9011254
:1035E800914200F0048109B10B60616804316160A7
:1035F80004A908A825F022F8002875D004A908A86D
:1036080025F058F900284ED0504637F055F816B135
:10361800B9F1000F06D117B1384637F04DF80DB0A3
:10362800BDE8F08F304637F047F8F4E79FED2D0AF4
:10363800B2E787EEA45A73E707EE905A15F0030134
:10364800F8EEE74ADFED277A98D0324657E7DFED04
:10365800257A334688E79A4200F0D38081460746A8
:103668000646054654E6D4E90136B3424FF0000A4F
:103678004FF0000B7FF49BAE31462A46204629F0D6
:103688005DFD0022124B50465946FEF78BF8FEF7B7
:1036980061FBD4E90156B54207EB80025AD0002DF0
:1036A8003FF49DAE97E6D4E90113994200F09A8061
:1036B800002939D0DAF800300B606368043363609E
:1036C800A2E700BFAFF30080666666666666EE3FF7
:1036D8000000D03F0000E83F0000E03F9A99999928
:1036E8009999A93F00000000D4E90113994200F01C
:1036F800838019B1DAF800300B60616804316160C9
:103708007CE72946304624F0A1FB3CE65FED0B7AC6
:10371800CAED007AD4E9011399427FF446AF5246C4
:10372800204629F00BFD46E7042363606CE7074653
:103738004FF0000A4FF0000B34E6204601AA29F0AA
:10374800FDFCB1E60121584636F0B4FF4FF00109FF
:1037580006468AE63146204629F0F0FC0022324B24
:1037680050465946FEF71EF8FEF7F4FAD4E901561A
:10377800B54207EB800203D0002D3FF443AE3DE68F
:103788003146204629F0DAFC25A3D3E90023504628
:103798005946FEF707F8FEF7DDFAD4E90156B542B7
:1037A80007EB800203D0002D3FF440AE3AE63146E5
:1037B800204629F0C3FC00221C4B50465946FDF711
:1037C800F1FFFEF7C7FAD4E90156B54207EB8002CC
:1037D80003D0002D3FF43CAE37E63146204629F0B1
:1037E800ADFC37E62046524629F0A8FC0CE75246C5
:1037F800204629F0A3FCFBE65246204629F09EFC11
:10380800FCE605464FF0000A4FF0000B0746C9E5F5
:1038180042F06AFFF0EE407AC0E600BFAFF30080E6
:10382800666666666666EE3F0000E83F0000E03FB9
:103838002DE9F04F9846013B95B0062B1E9C00F2EF
:103848008E8000234FF0000A4FF0000B05460E460D
:10385800104604A908AACDE904ABCDE908AB069344
:103868000A9328F077FDD4E900329A424FF000021B
:103878009FED3F7B18BF636031462846DDE904535E
:10388800089E5B1B4FEAA30A10AF0DF1300B3346BD
:103898000E921292CDF800A02A460297CDF804B0F5
:1038A8008DED0C7B8DED107B28F072FC214638469F
:1038B80029F018FDB8F1010F15D04FF00109DDE925
:1038C8000C01091A33462A468910CDE901B7CDF80B
:1038D80000A028F05DFC09F101092146384629F0CD
:1038E80001FDC845EBD15846214629F0FBFC4FF0B5
:1038F800380EC8EBC8074FEA6808C8EBC8084FEA93
:10390800C808FF0008F17008AEF138022368B8183B
:1039180099180344D3F800C0086804329645C1F8E2
:1039280000C01860F2D10EF1380EC645A7F1700735
:10393800EAD1109808B136F0BFFE0C9808B136F0FD
:10394800BBFE16B1304636F0B7FE2DB1284615B08D
:10395800BDE8F04F36F0B0BE15B0BDE8F08FEC21F1
:10396800054B064A06483FF063FC00BFAFF30080F2
:103978000000000000000000BC0D0600D40D060089
:103988004C0B0600000000002DE9F8434D680C467A
:1039980017460B7865BB032B40F089800020002177
:1039A800D4E90423FDF7FEFED4E90223FDF744FD24
:1039B800D4E906890D46044640F00EFAFDF788FE64
:1039C80041A3D3E90023FEF717F800223C4BFDF78B
:1039D80031FD42464B46FDF7E5FE22462B46FDF7F4
:1039E8002BFD02460B460020C7E90023BDE8F883FB
:1039F800B0FBF5F205FB1206032B58D801A252F8CA
:103A080023F000BF2B3A01005F3A01001D3A010084
:103A1800A5390100B6EB550F4FF0000033D2294904
:103A2800BEE73046FDF744FE23A3D3E90023FDF7A4
:103A3800B9FE804628468946FDF73AFE02460B46FF
:103A480040464946FDF7D8FF41EC100B03F054FA05
:103A580051EC100BA4E76D082846FDF729FEAE428D
:103A68008046894611D23046FDF722FE02460B46B3
:103A7800FDF7E2FC42464B46FDF7BEFF0022104B25
:103A8800FDF7D8FC8CE70E498AE7701BFDF710FE9E
:103A980002460B46FDF7D0FC42464B46FDF7ACFF0D
:103AA80002460B4600200649FDF7C4FC78E76FF094
:103AB80015009BE7AFF30080182D4454FB211940F3
:103AC8000000F03F0000F0BF0000C0FFFFFFCF4143
:103AD80038B5654B44689C4254D0644DAC4219D00B
:103AE800634B9C4234D0634B9C4240F0A280624BB3
:103AF8001A78012A0CD0012210201A700DF032F920
:103B080000B1456000235D4A037382600DF042FAFC
:103B1800002038BD5A4B82689A42F9D1037B002BAA
:103B2800F6D1554D2B78002B40F08D809FED4C7BC6
:103B3800544B5548554983ED007B34F005F9012372
:103B480010202B700DF00EF90028DBD04460D9E767
:103B5800494B1A78022ADBD09FED417B0222494962
:103B6800102081ED007B1A700DF0FCF800B1456063
:103B78000123424A037382600DF00CFA424834F084
:103B880095FAC5E70489002CC2D13B4B827A1B7891
:103B9800012B44D1EAB93B4D6B685A1C17D0B3F5D9
:103BA800FA7F1FDB41F288329342D4BF00230123FE
:103BB8000C205C000DF0D6F808B1354B43600023AB
:103BC800847203810DF0E6F94FF0FF336B6001203A
:103BD80038BD2C4940F6CD4200232B484C6034F0C8
:103BE8005FFAF4E72B6801330FD00C200DF0BAF818
:103BF80008B1274B436003230022837202810DF032
:103C0800C9F94FF0FF332B60DEE74FF4FA7140F645
:103C1800CD4200231C48296034F042FAD4E71D49FC
:103C28001D488C231D4A07F0C9FE8C211B4807F04C
:103C3800BBFE1B491848E723184A07F0BFFEE721D7
:103C4800164807F0B1FE17491348CD23134A07F069
:103C5800B5FECD21114807F0A7FE00BFAFF30080E5
:103C6800FFFFFFFFFFFFFFFF1C710600DC7106006E
:103C7800F47106009C7206008BAD00205874060093
:103C88002C740600407C0020107C002055FB0300AB
:103C980034710600F4230600C8890500E02A0600EE
:103CA80078490600608D05002DE970431029044607
:103CB800066945680CD8102963D8DFE801F0666604
:103CC80066666262626262626262627B9662AF008C
:103CD8003F2956D12868FDF7EBFC8946804640F01D
:103CE8007BF8FDF7F5FC66A3D3E90023FDF784FE16
:103CF8000022654BFDF79EFB42464B46FDF79CFBB9
:103D0800C6E902012879FDF7D3FC8946804640F0D0
:103D180063F8FDF7DDFC5AA3D3E90023FDF76CFE39
:103D28000022594BFDF786FB42464B46FDF784FBC4
:103D3800C6E90401A868FDF7BBFC8946804640F047
:103D48004BF8FDF7C5FC4EA3D3E90023FDF754FE5D
:103D580000224D4BFDF76EFB42464B46FDF76CFBD0
:103D6800C6E9060162682369127B012A6FD042B94D
:103D7800464D03222046AC46BDE870431146203329
:103D880060476FF08500BDE870832B7B012B60D006
:103D9800002BF6D13D4D02295DD0032963D00129BE
:103DA80063D0012200212046AC4606F12003BDE87D
:103DB800704360472868FDF77BFC0D46044640F0D9
:103DC8000BF8FDF785FC2EA3D3E90023FDF714FEBD
:103DD80000222D4BFDF72EFB22462B46FDF72CFB30
:103DE800C6E902010020BDE87083A868FDF760FC01
:103DF8000D4604463FF0F0FFFDF76AFC20A3D3E927
:103E08000023FDF7F9FD00221F4BFDF713FB2246A7
:103E18002B46FDF711FBC6E90601E3E72879FDF714
:103E280047FC0D4604463FF0D7FFFDF751FC14A3AD
:103E3800D3E90023FDF7E0FD0022134BFDF7FAFA62
:103E480022462B46FDF7F8FAC6E90401CAE7104DE9
:103E58008FE70F4D9FE72046AC4606F1300301225D
:103E6800BDE8704360470A469DE72046AC4606F128
:103E780028030A46BDE87043604700BFAFF30080DF
:103E88000000C0FFFFFFCF410000F03FC10F04005A
:103E980091100400000000002DE9F0411446056966
:103EA800102912D8DFE811F05000530056005900CD
:103EB8001100110011001100110011001100110072
:103EC80011000C010F01110015006FF08500BDE80D
:103ED800F081D5E90467002230463946804BFDF76A
:103EE800D3FE70BB7AA3D3E9002330463946FDF7E9
:103EF800E9FE30BB39463046FDF704FF0546FDF7BD
:103F0800E7FB02460B4630463946FDF793FA72A3A3
:103F1800D3E90023FDF746FC0022714B06460F4605
:103F2800FDF7B2FE68B96AA3D3E9002330463946E3
:103F3800FDF7C8FE28B9304639462560FDF7E2FE90
:103F480060600020BDE8F081D5E90867C3E7D5E9DE
:103F58000A67C0E7D5E90C67BDE7D5E9086700221D
:103F6800304639465E4BFDF78FFE78BB58A3D3E940
:103F7800002330463946FDF7A5FE38BB39463046A2
:103F8800FDF7C0FE8046FDF7A3FB02460B46304610
:103F98003946FDF74FFA50A3D3E90023FDF702FC99
:103FA80000224F4B06460F46FDF76EFE70B948A338
:103FB800D3E9002330463946FDF784FE30B9304650
:103FC8003946C4F80080FDF79DFE6060D5E90A67B0
:103FD800002230463946424BFDF756FE78BB3CA3DB
:103FE800D3E9002330463946FDF76CFE38BB394625
:103FF8003046FDF787FE8046FDF76AFB02460B4612
:1040080030463946FDF716FA33A3D3E90023FDF706
:10401800C9FB0022324B06460F46FDF735FE70B944
:104028002BA3D3E9002330463946FDF74BFE30B9C0
:1040380030463946C4F80880FDF764FEE060D5E9EB
:104048000C67002230463946254BFDF71DFE002837
:104058007FF477AF1EA3D3E9002330463946FDF736
:1040680031FE00287FF46DAF39463046FDF74AFE31
:104078000546FDF72DFB02460B4630463946FDF74F
:10408800D9F915A3D3E90023FDF78CFB0022144BC3
:1040980006460F46FDF7F8FD00287FF452AF0CA343
:1040A800D3E9002330463946FDF70CFE00287FF49B
:1040B80048AF304639462561FDF724FE606140E788
:1040C800D5E9026707E7D5E9066704E7AFF300809B
:1040D8000000C0FFFFFFDF410000000080842E4188
:1040E8000000E0C10000000070B5E8B1164D95F879
:1040F8003060BEB90446C5E900122FF0F7FA08B9D6
:10410800124870BD20462FF09BFA114B9842F8D107
:104118009FED0B7B012385ED027B85F8386085F8E0
:10412800303070BD0B4870BD0B490C484FF4DB7341
:104138000B4A07F043FC4FF4DB71094807F034FCE5
:104148000000000000000000C07D00200400AD0B4E
:104158000000AD0B0C00AD0BC4360600C889050085
:10416800D8390600000000009FED177B00B508292C
:1041780083B08DED007B03D9002003B05DF804FB0C
:104188000A460146684642F0A0FCDDE90023182AE9
:1041980073F1000112D3B2F5807F73F1000111D3DE
:1041A800B2F5803F73F1000206D3002B14BF09203B
:1041B800052003B05DF804FB0320DEE7012003B00F
:1041C8005DF804FB0220D8E70000000000000000B2
:1041D8002DE9F043C36883B0CB1A31D40D46D0E93A
:1041E800052101FB02F29A42044629D9B3FBF1F2F8
:1041F80001FB123323BB00F10806EFF311894FF0DE
:10420800200888F31288BFF36F8F304635F022FC00
:10421800002869D0304635F043FC2769FFB12F608C
:10422800E3693046013B2561E36135F021FC002854
:104238004AD089F31188BFF36F8F03B0BDE8F083CC
:104248003F4940F211133F4A3F4807F0B7FB3F4848
:1042580007F0B4FB40F211113A4807F0A5FBEFF361
:10426800118388F31288BFF36F8F83F31188BFF32C
:104278006F8F002B46D023689C4200D00BB927696A
:10428800CDE79A68002A4AD0D3E900219FED2A7B1E
:104298000A6051605A7B83ED007B22F002025A7358
:1042A8009F6003F11800019335F07AFD019B1846D1
:1042B800C3F8B0705D6134F0CDFA4946304603B0BA
:1042C800BDE8F04334F076BD40F23113204A1E4871
:1042D800204907F073FB31461F4807F06FFB40F297
:1042E80031111B4807F060FB8823194A16481B49FF
:1042F80007F064FB31461A4807F060FB8821144830
:1043080007F052FB1749B023174A0F4807F056FB2E
:10431800164807F053FBB021134807F045FB144932
:1043280009489923104A07F049FB99210E4807F0DC
:104338003BFB00BFAFF3008000000000000000005E
:1043480078490600103F0600C8890500F03F0600BE
:10435800F8980500589905007099050028990500F6
:1043680040990500404006001440060004B90500C5
:104378005840060000000000F8B5EFF30583002B55
:104388006FD183680446002B68D05F4A92689342D5
:1043980061D1C368002B71D0012B03D0013BC360EE
:1043A8000020F8BDEFF31186202383F31288BFF3B2
:1043B8006F8F564835F04EFB002876D0534835F0BD
:1043C8006FFBA068216990F90E3099421DD1EFF377
:1043D8001183202282F31288BFF36F8F83F3118831
:1043E800BFF36F8F002B53D02568A54200D07DB94D
:1043F80000234648C4E9023335F03AFB002862D06E
:1044080086F31188BFF36F8FCAE734F029FCDEE723
:10441800AB68002B67D0D5E900329FED397B0027C8
:1044280013605A606B7B85ED007B23F002036B738E
:1044380005F11800AF6035F0B3FCA56095F90E30B2
:1044480028462361C5F8B07034F004FA31462F4885
:1044580034F0B0FCA4E74FF0FF30F8BD6FF0150062
:10446800F8BD2B49D7232B4A2B4807F0A7FA2B482E
:1044780007F0A4FAD721274807F096FA28492648D2
:10448800EF23244A07F09AFAEF21224807F08CFA22
:104498002449B023244A204807F090FA234807F01B
:1044A8008DFAB021204807F07FFA8823204A214955
:1044B800194807F083FA15491F4807F07FFA882141
:1044C8001B4807F071FA40F23113194A1B49124888
:1044D80007F074FA0D491A4807F070FA40F23111E2
:1044E800134807F061FA17490B4899230E4A07F059
:1044F80065FA99210C4807F057FA00BFAFF300801E
:10450800000000000000000098930020C4930020E1
:10451800E0400600BC400600C8890500F4400600DB
:104528001C410600404006001440060004B905007E
:10453800F898050028990500409905005899050044
:1045480070990500584006002DE9F04782B00446EE
:104558000F4616461D469DF828A000F10808EFF3FF
:104568001189202383F31288BFF36F8F404635F0FB
:1045780071FA002800F09480404635F091FABAF1BB
:10458800000F2FD1EFF31183202282F31288BFF39B
:104598006F8F83F31188BFF36F8F002B73D023467F
:1045A80053F80C2F9A4201D0002A3CD1E5B9356066
:1045B80037B33B68032B2CD923F003032B43336019
:1045C8003B6803F003031E433E60042104F114001A
:1045D80035F0B2FE4946404634F0ECFB002002B00C
:1045E800BDE8F0876768CDE70821002000F044FCAB
:1045F80000283DD00125466005600646002FD8D129
:1046080023682B43336063682660002BDDD1666026
:10461800DBE73560626842B3136803F00303334392
:1046280013606660D1E79368002B57D09FED307B0D
:1046380000245168136802F118000B605960537B1D
:1046480082ED007B23F0020353739460019235F0EE
:10465800A7FB019A1046C2F8B040566134F0FAF848
:104668004946404634F0A6FBB8E726606660ACE7EA
:10467800404635F0FDF908B389F31188BFF36F8F11
:104688006FF00B00ABE71C49B0231C4A1C4807F02D
:1046980095F91C4807F092F9B021184807F084F9F9
:1046A8008823194A1648194907F088F941461848D5
:1046B80007F084F98821144807F076F940F231139D
:1046C800114A0F48134907F079F94146124807F093
:1046D80075F940F231110C4807F066F90F4908489E
:1046E8009923064A07F06AF99921044807F05CF90A
:1046F80000000000000000004040060014400600D2
:10470800C889050004B90500F8980500289905002E
:104718004099050058990500709905005840060011
:1047280070B50446EFF31186202585F31288BFF390
:104738006F8F374835F08EF900283ED0344835F071
:10474800AFF9EFF3118385F31288BFF36F8F83F30B
:104758001188BFF36F8F002B3DD02568AC4200D085
:1047680085B9D4E902329A4218BF0133022104F113
:104778001000A36035F0E0FD3146BDE870402448E4
:1047880034F018BBAB68002B32D0D5E900320024D6
:104798009FED1D7B13605A606B7B85ED007B23F0DA
:1047A80002036B7305F11800AC6035F0F9FA28467E
:1047B800C5F8B04034F04EF8DEE78823154A1649AC
:1047C800164807F0FBF81249154807F0F7F8882152
:1047D800104807F0E9F81349B023134A0F4807F0C7
:1047E800EDF8124807F0EAF8B0210F4807F0DCF8B6
:1047F8000F490A4899230C4A07F0E0F899210A481A
:1048080007F0D2F8AFF300800000000000000000BD
:10481800C8930020F898050028990500C889050064
:1048280040990500404006001440060004B9050000
:10483800584006000000000070B588B00C9D0028A4
:104848003ED0002954D00446D0F8100110F00100E1
:1048580042D1C4F8F800C4F8FC0004F58070C4E93B
:10486800400004F58470C4E942003DB32E7940F25B
:104878000110002E08BF01209FED237BC4F8100112
:10488800002603938DED067B2046CDE90166204B7B
:104898000094049633F0FAFD55B1296811B1204609
:1048A80033F0E0FD6B791BB1237B43F001032373E5
:1048B800204608B0BDE8704034F0BEBD0120DBE7FB
:1048C8001449154840F2DB23144A07F077F840F200
:1048D800DB21124807F068F811490F4840F2DD2340
:1048E8000E4A07F06BF840F2DD210C4807F05CF83F
:1048F8000C4909484FF43773084A07F05FF84FF43A
:104908003771064807F050F8FFFFFFFFFFFFFFFF72
:104918000974040098420600C8890500B0410600E1
:10492800A8420600A042060070B584B0002863D0F3
:1049380004460D4633F090FD002851D1EFF311865F
:10494800202383F31288BFF36F8F3B4835F082F83A
:10495800C0B3394835F0A4F8D4F8103113F0060F75
:104968001BD105BBD4F8F85015B343F00403C4F8C1
:104978001031002204F58070114634F007FF9FEDD6
:104988002C7B002331468DED007B2B4804F5847287
:10499800029334F06DFF04B070BD43F00402C4F814
:1049A8001021002DE5D043F00C03C4F81031E0E7E6
:1049B800214835F05DF858B386F31188BFF36F8F3F
:1049C8002846E8E788231D4A1D491E4806F0F6FFD9
:1049D80019491D4806F0F2FF8821184806F0E4FF3F
:1049E8001A49184840F20533194A06F0E7FF40F221
:1049F8000531174806F0D8FF164912484FF441739D
:104A0800134A06F0DBFF4FF44171114806F0CCFF62
:104A180040F23113094A10490A4806F0CFFF064907
:104A28000E4806F0CBFF40F23111044806F0BCFFF7
:104A3800FFFFFFFFFFFFFFFFCC930020F898050062
:104A480028990500C889050040990500A4DB0500E0
:104A5800B041060098420600589905007099050073
:104A68002DE9F04F85B0119D0446DDE90F760B2D39
:104A78009A46DDF83880DDF84C9060D005F10A03DD
:104A8800142B5FD8129B4FF0000B237304239FED68
:104A9800467B073222F00702C4E92712A573CDE945
:104AA8000176CDF800808D18637304F15803C4E9CA
:104AB80016332A465346204684ED067BC4F808B0D0
:104AC80084F80FB0C4F8A4B00DF008FCC4E919A824
:104AD800E766C4F854B02667EFF31187202383F301
:104AE8001288BFF36F8F324834F0B4FF00284CD0DF
:104AF800304E2F4834F0D4FFB36A2D486367B46250
:104B080034F0B6FF88B387F31188BFF36F8FB9F11C
:104B1800000F11D049461F2204F1780042F060F9D5
:104B280084F897B0B3680BB1D3F8A8302846C4F816
:104B3800A83005B0BDE8F08F84F87890F2E71E4BF6
:104B48009A459FD04FF401731C4A1D491D4806F031
:104B580035FF29461C486FF009030A2206F02EFF8C
:104B68004FF40171154806F01FFF40F23113174A40
:104B78001749144806F022FF0D49164806F01EFF93
:104B880040F23111114806F00FFF88230F4A1249ED
:104B98000C4806F013FF0649104806F00FFF88215D
:104BA8000A4806F001FF00BF0000000000000000F6
:104BB800E893002098930020296E0400F442060030
:104BC80018430600C889050098430600F8980500B0
:104BD8005899050070990500289905004099050025
:104BE8002DE9F04F2DED028B054683B0EFF31187C9
:104BF8004FF0200B8BF31288BFF36F8F6C4834F0A3
:104C080029FF002800F0B580DFF8C491684834F027
:104C180047FFD9F80040DFF8BCA14C45CAF800505E
:104C280000F09480002C00F0B280CDF804B09FED25
:104C38005E8BDFF898B1DFF8788102E0002C00F095
:104C4800B180D4E90463E917B54271EB030042DB94
:104C5800DBE900319B1941EBE671204684ED048BBA
:104C6800CBE9003134F098FF404634F001FF0028CA
:104C78006FD087F31188BFF36F8F2046A3689847DA
:104C8800EFF31187019B83F31288BFF36F8F4046C0
:104C980034F0E0FE00286CD0404634F001FFDAF82A
:104CA8000050D9F80040AD1B4C45CAF80050C5D19A
:104CB8000021DBF80030CAF800105B19CBF800308F
:104CC800DBF8043043EBE573CBF8043022F068FEE0
:104CD8006FF0004028E0761B63EB010326616361F7
:104CE800D9F800400023CAF80030DBF800305B191F
:104CF800CBF80030DBF8043043EB01034C45CBF82C
:104D08000430E3D022F04CFE002CE1D0D4E9043288
:104D18001B1A62EBE072B3F1004F72F10001D7DAAF
:104D2800002AACBF18460020002122F0C7FD204809
:104D380034F09EFE68B187F31188BFF36F8F03B01C
:104D4800BDEC028BBDE8F04F34F00CBEDFF87CB050
:104D5800AEE740F23113174A1749184806F02EFEFD
:104D68001349174806F02AFE40F23111114806F09F
:104D78001BFE88230F4A1349104806F01FFE0C49F2
:104D8800114806F01BFE88210A4806F00DFE0F4A5E
:104D9800CAF80040D2E900315B1941EBE571C2E97C
:104DA800003193E7E9179DE70000000000000000CC
:104DB800F0930020F898050058990500C889050067
:104DC8007099050028990500409905002082002067
:104DD80064390020EC93002000239FED077BC0E995
:104DE800081200F1180280ED007BC0E90622036377
:104DF80043637047AFF3008000000000000000002C
:104E080030B5021D83B011D29FED137B144D0421E0
:104E180028468DED007B31F0FFFD044630B144F8A3
:104E2800045BA30706D1204603B030BD002420460A
:104E380003B030BD25230B4A0B490C4806F0BEFDD4
:104E480021460B48042206F0B9FD2521054806F045
:104E5800ABFD00BFAFF300800000000000000000C1
:104E6800943D0020B448060048490600C88905005A
:104E78007C4906000000000070B582B006460C466A
:104E880033F0EAFAC8B91A4B9B68D3F8A8508DB129
:104E9800221D14D29FED147B28468DED007B46F031
:104EA800040131F0B9FD50B10560051D16B1731E3E
:104EB8001D4208D1284602B070BD0E4DE8E7002516
:104EC800284602B070BD25230B4A0C490C4806F051
:104ED80075FD29460B48324606F070FD2521064827
:104EE80006F062FDAFF30080000000000000000043
:104EF80098930020943D0020B448060048490600D5
:104F0800C88905007C4906002DE9F04F2DED028B7C
:104F1800002485B010F00105039440F0BE801F46C0
:104F2800461003AB144630462A4600958B4600F0DF
:104F3800CFF8039B03F10C0A06EB460303EBD3738C
:104F48005B100AEBC30A002F00F0B0803B68C7F87B
:104F580000A05345C0F0A480002C00F0A1800027D9
:104F680004F10C022260039930461144616001EBA0
:104F7800C601A16003AB5946009706EBD67900F04D
:104F8800A7F84FEA6909BBF1000F47D0012E3ADDB7
:104F98003046FCF79DFBB84606460F4601352846C5
:104FA800FCF796FB32463B46FCF726FD0022464BB3
:104FB800FCF742FA40A3D3E90023FCF7F3FB41ECEA
:104FC800180BB0EE480AF0EE680A01F0C1FEA368BB
:104FD80051EC100B03EB080BFCF7DCFEB0EE480AB3
:104FE800F0EE680ACBF8000001F086FFA36851ECE8
:104FF800100B03EB080BFCF7CDFE4D4508F1080834
:10500800CBF80400CADB109B13B1109BC3F800A0B7
:10501800204605B0BDEC028BBDE8F08F012EF2DD15
:105028003046FCF755FB5D4606460F460BF1010B73
:105038005846FCF74DFB32463B46FCF7DDFC0022A8
:10504800214BFCF7F9F91EA3D3E90023FCF7AAFBCF
:1050580041EC180BB0EE480AF0EE680A01F078FE51
:10506800A36851EC100B03EB0508FCF793FEB0EEB8
:10507800480AF0EE680AC8F8000001F03DFFA3688E
:1050880051EC100B03EB0508FCF784FECB4505F14A
:105098000805C8F80400C9DBB5E70C4835F0DEFAA6
:1050A800002005B0BDEC028BBDE8F08F504635F00E
:1050B800FFFA044650E700BF182D4454FB2109406D
:1050C800182D4454FB2109C00000E03FA449060004
:1050D8002DE9F04F2DED028B00F1210504468A469B
:1050E80083B0ED00002B00F0DF801946002A00F0A5
:1050F80091801B68AB42C0F08D800D600192019BCE
:105108002046C3E9004AFCF7E3FA06460F46BAF11F
:10511800000F40F09380002C30DD0FF2A819D9E978
:105128000089DDF804B05046FCF7D2FA42464B46F7
:10513800FCF738FB32463B46FCF75EFC41EC180BAB
:10514800B0EE480AF0EE680A01F002FE51EC100BCE
:10515800FCF720FEB0EE480AF0EE680ACBF808012A
:1051680001F0CAFE51EC100BFCF714FE0AF1010A1B
:1051780054450BF1080BCBF80401D4D147EC106B64
:1051880041F048FA01F038FE4FF0040B4FF00008E8
:105198004FF0804957EC106B019B03F1080A94FB10
:1051A800FBF30BFB13426AB3BBF1020F3ED0BBF11A
:1051B800040F13D14FF0020B42464B463046394696
:1051C800FCF762FDB8B994FBFBF30BFB1342CAB1C1
:1051D800BBF1020F4FF00002394B2CD00BF1020B40
:1051E8005846FCF775FA02460B4630463946FCF736
:1051F8004BFD0028E7D0A34694FBFBF30BFB1342BF
:10520800002AD1D1012B1C46CAE900B305DD0AF1F9
:10521800080AC4E70D60002301930E9B03B11D60CB
:10522800019803B0BDEC028BBDE8F08F4FF0030B83
:105238000022234BC2E74FF0030BBFE7002C9DDD94
:105248000FF27409D9E900894FF0000ADDF804B0BB
:105258005046FCF73DFA42464B46FCF7A3FA324665
:105268003B46FCF7C9FB41EC180BB0EE480AF0EEE0
:10527800680A01F06DFD51EC100BFCF78BFDB0EEE8
:10528800480AF0EE680ACBF8080101F035FE51EC47
:10529800100BFCF77FFD0AF1010A54450BF1080BCE
:1052A800CBF80401D4D169E7284635F001FA01901A
:1052B80000287FF424AFAEE7182D4454FB21194091
:1052C80000000840182D4454FB2119C000000000BC
:1052D800F0B5012A85B00D9E02D1002005B0F0BDC1
:1052E8001C469FED157B0C9B0F46009302AB019368
:1052F8002146DDE90A2305468DED027B00F070F8B2
:105308000028EBD19DED020B3046311D38F0C8FB6B
:10531800226906F10C0372610A9A39461269284615
:10532800B2610C9A1269F26100930C9A06F10803B3
:1053380038F064FC05B0F0BD00000000000000007B
:105348002DE9F84F4FF0004323FA00F059EC108B89
:1053580057EC116B92468B46FCF7BAF93246044675
:105368000D463B4640464946FCF71CFA02460B46AA
:1053780020462946FCF716FA15A3D3E9002304466C
:105388000D46FCF79FFCA0B9064629462046002298
:10539800114BFCF797FCC8B1204629460022002390
:1053A800FCF768FC40B1CBF80060CAF80060BDE8C3
:1053B800F88F07A5D5E900455146584645EC104BEE
:1053C80038F03CFBDAF80030002BF0DA0DF03EFC48
:1053D8000000C0FFFFFFDF410000F03F00000000B9
:1053E8002DE9F0412DED028B82B0054691ED038A3F
:1053F800D2ED038ADDF828807BB318EE100A1C462C
:10540800FCF778F9064618EE900A0F46FCF772F991
:1054180002460B4630463946FCF7C4F90646E068B2
:105428000F46FCF767F90B46024639463046FCF74B
:1054380001F80246D8F80C00164621F00047FCF7A0
:1054480059F902460B4630463946FCF7D5FA22A3ED
:10545800D3E90023FCF722FC08B328EE288AB5EE2E
:10546800C08AF1EE10FA29DB18EE100AFCF742F9AF
:105478000446D8F80C000D46FCF73CF902460B46EA
:1054880020462946FCF7B8FA02460B4600200B993D
:10549800C1E9002302B0BDEC028BBDE8F0814FF4F6
:1054A800A273094928466C69084A00910849A0472F
:1054B800012002B0BDEC028BBDE8F08140F251132F
:1054C8000449EFE7AFF3008048560600A0550600F0
:1054D800585106006C5606007B14AE47E17A943F9B
:1054E8002DE9F04F1F469DB000230C4682460F92CF
:1054F80018934FF00008984B4FF000091D68284694
:10550800FCF72AFD22468346179213782B2B3BD0B3
:105518002CD80D2B26D8082B26D8002B2FD00023CB
:105528000D93179E3378302B74D1737803F0DF0313
:10553800582B65D10D9B17A9884A5046019318AB83
:105548000297009319AB3EF079FF10F00705044667
:1055580035D0062D1AD10F9B0BB101361E6042467D
:105568004B4637E0202BDAD10132CDE72D2BD6D1AF
:1055780001230D93531C17935378002BD1D10F9B04
:10558800002BECD01C60EAE70023F2E7189A3AB146
:1055980035211AA841F0BFFF189950463FF00EFA7E
:1055A800013D199A042D06D8DFE805F019032225D4
:1055B8001900DDE91A89210701D549F000490F9B37
:1055C80013B1179B0F9A13600D9B002BC7D042464F
:1055D80009F1004343EC102B1DB0BDE8F08FDDE965
:1055E8001A8302F2334223F4801343EA0259E2E7B2
:1055F800DFF86C91DFE76FF000494FF0FF38DAE72A
:10560800179B5A1C17925B78302BF9D0002BD6D0F9
:10561800012300E00023002704930A22179BCDE909
:1056280005770A9317980678A6F13003D9B20929A5
:1056380024D95A46294641F0C1FB00282DD0002024
:105648003246059D83460346652A01D0452A13D173
:105658001DB9049A024392D00025179C621C179228
:1056680062782B2A6ED02D2A72D04FF0000CA2F14E
:10567800300109297AD91794002699E00599013053
:1056880008291790D7BF069902FB073702FB013399
:105698000693059B01330593C4E7179B03EB0B02A5
:1056A800179213F80B20059BA3B383461D46A2F15E
:1056B8003003092B12D90123C6E7179B01305A1C66
:1056C80017925A78302AF8D0A2F13103082B00F249
:1056D800EF8483460020179B05460A93303A00F171
:1056E800010311D09B4400EB050C2B460A216345AE
:1056F80012D12B180135082B054419DC06990A2309
:1057080003FB012306930023179A1846511C17918F
:105718005278CCE70598D5E7082B03F1010303DCA1
:10572800069E4E430696E2E7102BD8BF4F43DEE7AE
:105738000F2BDCBF0A2303FB0727E4E74FF0000B1E
:10574800012386E74FF0000CA21C1792A2788EE77F
:105758004FF0010CF8E700BF8C59060018590600F5
:105768000000F07F179A511C17915278302AF9D00F
:10577800A2F1310108293FF67FAF303A0792179A14
:105788000C92179A561C17965278A2F1300EBEF159
:10579800090F38D90C99761A082E44F61F6603DCCF
:1057A80007998E42A8BF0E46BCF1000F00D0764282
:1057B800002D4FD1049908437FF401AF002B7FF4EB
:1057C800DEAE692A29D026DC492A26D04E2A7FF463
:1057D800D6AE9B4917A841F01CFD00283FF4CFAE78
:1057E800179B1B78282B2FD11AAA964917A841F086
:1057F80024FD052828D11B9BDDF8688043F0FF496C
:1058080049F4E009DBE6079E0A2101FB0621A1F124
:1058180030020792B5E76E2AD9E78B4917A841F0FD
:10582800F8FC00283FF4ABAE179B17A88749013B4B
:10583800179341F0EEFC10B9179B01331793DFF86B
:105848001C924FF00008BAE6814801F079FA59EC49
:10585800108BB4E6A6EB0B0306982C460C93059B1D
:10586800002B08BF2B46102D0593A8BF1024FBF76B
:105878001FFF092D8046894613DC0C9B002B3FF443
:105888009EAE0C9B78DD162B45DC7249424601EB37
:10589800C3014B46D1E90001FBF784FF80468946E6
:1058A8008DE66C4B03EBC40353E91223FBF77AFF35
:1058B800804689463846FBF7FBFE02460B464046C3
:1058C8004946FBF7B9FD0F2D80468946D5DD2C1BCF
:1058D8000C9B1C44002C25DC00F0A280644214F0D0
:1058E8000F020AD05B4B4046494603EBC203D3E99B
:1058F8000023FCF781F880468946241100F0908047
:105908001F2C40F3B18022234FF000084FF000090C
:10591800CAF8003053E6C5F125030C9A934219DA08
:105928002C1B144414F00F030AD04A49424601EBD9
:10593800C3014B46D1E90001FBF734FF8046894695
:1059480034F00F046CD0B4F59A7F41DD2223CAF8F5
:10595800003074E7C5F10F053E4C42464B4604EB58
:10596800C501D1E90001FBF71DFF0C9B5D1B04EB92
:10597800C504D4E900238FE71633A8DBABEB060296
:10598800344B4046494603EBC203D3E90023FCF7F6
:1059980033F883E7002306932223DFF8C0904FF003
:1059A8000008CAF80030189950463FF007F80699E1
:1059B80050463FF003F8059950463EF0FFFF109916
:1059C80050463EF0FBFF079950463EF0F7FFF6E5DC
:1059D80000232411404649461F4F0493012C22DC22
:1059E8000BB180468946049BA9F154791A4942466D
:1059F80001EBC3014B46D1E90001FBF7D3FE174B7E
:105A08000A4680460B4016498B429FD8A1F5801163
:105A18008B4286BFDFF84C904FF0FF3802F1547983
:105A2800002304934BE0E20704D5D7E90023FBF7F2
:105A3800B9FE0123049A6410083701320492CDE7B5
:105A4800975E0600045906008F5E0600325F060066
:105A5800775D060000880500D88705000000F07F04
:105A68000000A07CFFFFEF7F14F01003404649467A
:105A7800AA4F18BF6A2304930023E20704D5D7E985
:105A88000023FBF78FFE0123641007F10807F4D108
:105A98000BB180468946049B43B1C9F30A52494673
:105AA800C2F16B03002B4EDC6A230493002200230F
:105AB80040464946FCF7DEF800287FF424AF069BF1
:105AC8005046059A00932B460A993EF0E1FF109044
:105AD80000283FF43BAF0C9BABEB060B002BB4BF8D
:105AE8005B46002311930C9B23EAE3731393002373
:105AF80007930593109B504659683EF01FFF069088
:105B080000283FF449AF109B0C301A6903F10C01CF
:105B18000232920040F0D9FF1AAA19A9504649EC5E
:105B2800108BCDE90A893FF08FFA189000283FF4CE
:105B380033AF012150463EF0F5FF03460590D0B93A
:105B48000023059328E71F2B0EDD342B4FF00008A8
:105B5800DBBF4FF0FF33C2F14B024FF05C7993404B
:105B6800D8BF03EA01099FE74FF0FF3202FA03F3B7
:105B780003EA080898E7199C1A9A002CA9BF119BF8
:105B8800139BE718139EB8BF1E1B049BB8BF119F39
:105B9800E41A634B1444C2F13602013C9C4280F281
:105BA800B0801B1B01251F2BA2EB0302CDBFC4F144
:105BB8007F449D40002404F57F04C2BF04F57B4464
:105BC800E23405FA04F407EB020B049B16445F4524
:105BD8001E443B46A8BF5B46B342A8BF3346002BD2
:105BE800C2BFABEB030BF61AFF1A119B002B16DD95
:105BF8001A46059950463FF055F8059000289FD061
:105C08000146189A50463EF0A3FF0E9000283FF434
:105C1800C3AE189950463EF0D1FE0E9B1893BBF1C7
:105C2800000F71DC0C9B002B08DD139A5046069977
:105C38003FF038F8069000283FF4ACAE002E08DD9F
:105C48003246069950463FF087F8069000283FF400
:105C5800A1AE002F08DD3A46059950463FF07CF882
:105C6800059000283FF498AE069A504618993FF0E0
:105C7800DFF8079000283FF48FAEC36805990E93AC
:105C88000023C36041F0FAFB00284BDA0E9B53EA6D
:105C9800080340F0BC80C9F31303002B40F0B78021
:105CA80029F000431B0D1B05B3F1D66F40F2AF80FE
:105CB800079B5B6923B9079B1B69012B40F3A780EE
:105CC8000122079950463FF047F80599079041F09F
