:020000040000FA
:10000000B8890520392E0000B58D0000252E00008E
:10001000252E0000252E0000252E0000252E000094
:100020000000000000000000000000008D2F000014
:10003000252E000000000000352F0000252E0000B6
:1000400005310000053100000531000005310000D8
:1000500005310000053100000531000005310000C8
:1000600005310000053100000531000005310000B8
:1000700005310000053100000531000005310000A8
:100080000531000005310000053100000531000098
:100090000531000005310000053100000531000088
:1000A0000531000005310000053100000531000078
:1000B0000531000005310000053100000531000068
:1000C0000531000005310000053100000531000058
:1000D0000531000005310000053100000531000048
:1000E0000531000005310000053100000531000038
:1000F0000531000005310000053100000531000028
:100100000531000005310000053100000531000017
:100110000531000005310000053100000531000007
:1001200005310000053100000531000005310000F7
:1001300005310000053100000531000005310000E7
:1001400005310000053100000531000005310000D7
:100150000531000053B94AB9002908BF00281CBF67
:100160004FF0FF314FF0FF3000F00CB8ADF1080C4C
:100170006DE904CE00F008F8DDF804E0DDE90223C3
:1001800004B07047704700BF2DE9F04786468C46A3
:100190000846089E154674461946002B40F0C1805B
:1001A0008542B2FA82F245D94AB1C2F1200300FA7F
:1001B00002FC954094402EFA03F343EA0C0C4FEAFC
:1001C000154EA8B2230CBCFBFEF80EFB18CC08FBA6
:1001D00000F943EA0C43994528D9EB1808F1FF3799
:1001E00004D2994502D9A8F102072B44A3EB0903D5
:1001F000A4B2B3FBFEFC0EFB1C330CFB00F044EA84
:100200000344A04214D92C190CF1FF3304D2A042AC
:1002100002D9ACF102032C44241A43EA07401EB170
:10022000D440002334607360BDE8F0874746DDE7C3
:100230006346F1E792BB431B01214FEA154EAFB273
:10024000200CB3FBFEFC0EFB1C330CFB07F840EA52
:100250000343984561D9EB180CF1FF3004D298455F
:1002600002D9ACF102002B44A3EB0803A4B2B3FB08
:10027000FEFC0EFB1C330CFB07F744EA0344A742C9
:100280004DD92C190CF1FF3304D2A74202D9ACF19D
:1002900002032C44E41B43EA0040C0E7C2F1200300
:1002A0009540944020FA03F12EFA03F34FEA154EDD
:1002B0009040AFB20343B1FBFEFC0EFB1C10190CC7
:1002C0000CFB07F841EA0041884522D969180CF176
:1002D000FF3004D2884502D9ACF102002944A1EBD9
:1002E00008019BB2B1FBFEFC0EFB1C110CFB07F7D7
:1002F00043EA01439F420ED9EB180CF1FF3104D2BF
:100300009F4202D9ACF102012B44DB1B41EA0041C0
:1003100093E76046E3E76146F7E76046A4E7634694
:10032000B8E7834206D916B9002108467CE7C6E93A
:1003300000E0F9E7B3FA83F78FB9834201D372453E
:1003400008D8BEEB020460EB030301209C461EB9F3
:10035000002169E73846FAE7C6E9004CF8E7C7F13B
:10036000200CBB400EFA07F522FA0CF42EFA0CF121
:10037000BA401C4320FA0CF3B8404FEA1449014339
:100380001FFA84FEB3FBF9F809FB18300B0C08FBCD
:100390000EFA43EA00439A4540D9E31808F1FF30CA
:1003A00004D29A4502D9A8F102002344A3EB0A0320
:1003B00089B2B3FBF9F809FB183308FB0EFE41EADA
:1003C00003418E452CD9611808F1FF3304D28E45C4
:1003D00002D9A8F10203214443EA0040A1EB0E0137
:1003E000A0FB02984145CE46434602D306D14D4577
:1003F00004D20138B9EB020E68EB0403002EA7D03B
:10040000B5EB0E0261EB030101FA0CFC22FA07F3D3
:10041000F9404CEA0303C6E9003199E74046C5E7D5
:100420004346D9E7F0B5364B364A85B0C2F80036B8
:10043000C2F80436C2F80836C2F80C36C2F81036D4
:10044000C2F81436C2F81836C2F81C3602F58052CB
:10045000C2F80036C2F80436C2F80836C2F80C36C4
:10046000C2F81036C2F81436C2F81836C2F81C3674
:1004700000F08EF800F04CF858B14FF05023D3F84C
:1004800000340BB1DB0704D501F068FE1E4802F012
:1004900003FB01A800F00EFF1C4B1B68834200D039
:1004A000FEE74FF48031002004F070FC044600B1F8
:1004B000FEE7012004F050FD69469DF8080008F0B1
:1004C00036F8009B039D1D44019B1E8904F046FCE9
:1004D000AF1900F083FF00F065FF02F0DDFC84F34C
:1004E0000B8884F30A88AB5983F3088884F3148853
:1004F000BFF36F8FBFF36F8F7B689847FEE700BF36
:100500003546526E00800150C8B80000C02300205C
:1005100073B50F4C20460AF0F0FDB8B12569A66806
:100520002B68172143F400032B6020463368094AE7
:1005300098472046736801A9984720B92B6801980D
:100540005840C0F3C050003818BF012002B070BD41
:100550002CB500001100010021B1012906D06FF077
:1005600015007047044B53F830007047024B03EB03
:10057000C0035868704700BFD0B8000004289ABF75
:10058000024B18566FF01500704700BF60BD0000A9
:100590004FF4C051014805F02DBA00BF02360120CA
:1005A0002DE9F04706460F4690461C46124DDFF8EF
:1005B0004CA0554511D30A2120460AF085FD0222A0
:1005C00020460F490AF073FD082120460AF062FD1B
:1005D0000A2120460AF080FD0BE055F8049BB9F192
:1005E000000FE6D02346424639463046C847082821
:1005F000DFD00020BDE8F087C4C30000C8C30000FE
:1006000065BD000037B51D4683883F2B2ED103788A
:1006100003F00703022B29D1C4793CBB092001A9AF
:1006200001F0A8FB00281FDB01982146826808F032
:10063000D3FA0446019808F0A4FA003C18BF01243C
:100640000A2128460AF040FD0222094928460AF0FC
:100650002EFD214628460AF01DFD0A2128460AF0F3
:100660003BFD204603B030BD0124E9E70824F8E74C
:1006700065BD00002DE9F04F9B46F7B07E4B074665
:10068000DDE9818936A80E4614461D680AF013F884
:10069000002136A805F0E6FAB8F1000F07D0B9F14D
:1006A000000F04DD4A46414636A80AF00DF84FF027
:1006B000000833897289D6F80CA013449A44C245C5
:1006C00066D80CA936A80AF03EF836A809F0F7FF5C
:1006D000839B23B1202218460CA908F006FC0023B6
:1006E0002246009331464FF6FF7306A807F040FFFD
:1006F000804600285CD1214638460B9E07F0F2FF69
:10070000864255D84FF0FF36DFF870A1DFF87091C0
:100710000DF1120304AA05A906A807F077FF002827
:1007200046DB40F0A280059906A807F0BBFF50B950
:100730004FF6FF71BDF81200524A32F8023B8B426D
:1007400036D09842F9D1BDF81270102F3AD0202F30
:100750006DD0012FDCD1BDF81030202B28D82046D9
:10076000059936AA08F00EFA064608BB9DF810B0A7
:10077000BBF1200F09D8D9F80030434F0393039BF6
:100780001CA89E4236DB09F09AFF4FF0FF36BFE708
:10079000809BAAEB0809994528BF99465A464B46C3
:1007A0004146204608F0EEF928B136A809F087FF47
:1007B000314B1D685CE04A46594636A809F084FF73
:1007C000C8447CE7BDF81070202FF1D13B4620468D
:1007D000059936AA08F0D6F90028E9D13A4636A993
:1007E0000CA807F06DFFDAF800308342E0D14FF03B
:1007F00001088DE709F05FFF00211CA805F032FA1F
:100800007A681CA8126857F8081B09F05DFF14A944
:100810001CA809F098FF5A4636A914A808F03EFB18
:1008200018B91CA809F04BFF72E70136A7E7731C43
:100830003FF46EAFD9F80030B342A6DDBDF81030FA
:10084000B3F5807FB4D12046059936AA08F09AF90D
:100850000028ADD1F6B23946BDF81030009636AA60
:100860000CA800F0A9F805468FE7B8F1000F9FD05B
:10087000284677B0BDE8F08F08200020C023002074
:10088000E0B800000CBD0000E4B800002DE9F0471E
:1008900089461946464BADF5AE6D1E68DDF89035BC
:1008A000B3F5807F7ED1202A7CD15CAA05F092F935
:1008B0000446002876D19DF86F32BC2B72D10DF121
:1008C0009008DF27454601900AA809F0F4FE0021B0
:1008D0000AA805F0C7F920220DF24F210AA809F055
:1008E000F3FE04220AA80DEB020109F0EDFE02A9B5
:1008F0000AA809F028FF202FBA46A8BF4FF0200A07
:100900009DF8073040460133524602A9A7EB0A077B
:100910008DF8073008F0E9FA002FD044D4DC0AA89B
:1009200009F0CDFEAC462946DF225CAB087813F80F
:10093000017B013A80EA070001F8010BF6D12B7820
:1009400003F07F032B701CF8017B5FBB0134BE2CCE
:10095000F9D195F8BE30012B24D10AA809F0ABFEDD
:1009600039460AA805F07EF9082212490AA809F0BA
:10097000ABFE494620220AA809F0A6FE20220DF26D
:100980004F110AA809F0A0FE02A90AA809F0DBFE8F
:100990000AA809F094FE20220DF24F2102A807F0C8
:1009A0008FFE064630460DF5AE6DBDE8F08700BF00
:1009B0000820002068BD00002DE9F04F1F46A3B0BD
:1009C0002F4B804604A89DF8B0501E688946924679
:1009D00009F02AFE0922012104A805F0BDF8294BDF
:1009E00003AA53F8354003EBC5035B6802941B6808
:1009F00002A81C442146302308F001FF002838D10A
:100A0000DDE9023213449C4233D1214606AA02A8F2
:100A100008F009FF68BB0DF1200B5A46214602A8D9
:100A200008F001FF054620BB06A809F0AAFA029BC0
:100A300005909C421DD12B462A46CDE9005B06A9B4
:100A400004A809F0AEFDA0B904A805F09DF880B98E
:100A500006A809F096FA059004A809F0EFFD874270
:100A600007D153464A464146009704A8FFF70EFFB8
:100A7000064604A809F0E4FD304623B0BDE8F08F37
:100A800008200020E4B80000034637B54FF40062A8
:100A9000084693F8B84013490192620051F8225079
:100AA000A8420ED1582101FB043201FB0434526AE2
:100AB000283401A908F0D8F808B9019B236003B0D5
:100AC00030BD013251F82220904208D1582101FB5B
:100AD000043201FB0433126D03F15404E9E70120F1
:100AE000EDE700BFECB8000070B590F8B850104EBC
:100AF0006D0056F825100446FFF7C6FF98B901357A
:100B000056F825102046FFF7BFFF054668B9582262
:100B100094F8B83002FB0343186A08F075F8C4F87B
:100B2000B400284670BD0125FBE70925F9E700BFA1
:100B3000ECB800002DE9F04F4FF02C08582508FBC9
:100B400001F890F8B890044605FB098303441E6A37
:100B500087B030460F4608F05EF8024694F8B800B9
:100B600015FB008525446B1E033513F8011F9142C8
:100B700040D1AB42F9D13B4B1D6833E03A4B1D6885
:100B80003A4B1B68AB4207D0002FF4D0002130460F
:100B9000B26808F021F8EEE7582294F8B8305343D1
:100BA000E218D16C8E421DD1D2F82080002205922D
:100BB0002C2202FB0733234419890423304605AA5B
:100BC000194407F0DFFF0028D5D194F8B830012B85
:100BD0000CD03BB9D8E90123134405999142D5D3F0
:100BE0009942D3D8284607B0BDE8F08F4FF0827302
:100BF0001F4AF2E74FF0580B2C220BFB09F302FBC4
:100C00000733E5182969CA06B5D4E258194B9A4248
:100C1000B4D1EB682A89D218B0D26B899B18ADD2B7
:100C2000B2689342AAD240F60C6A11EA0A0AA5D128
:100C3000394604F09BF905460F4B1B6898429FD13B
:100C40004FF4807309FB0B81009332462046CDE9B7
:100C500002AA0A4BCDF804A02144FFF70BFD05467C
:100C60008EE700BF0420002008200020C0230020C1
:100C7000008800013DB8F39600200020024E0120BC
:100C80002DE9F84F884691469A460026DFF88CB049
:100C9000234D244C0B9B9E4201D300200FE00B9B65
:100CA00040469F1BB7F5806F28BF4FF480671B4AF3
:100CB0003B4606EB0A0107F065FF10B10120BDE8D5
:100CC000F88F0A993B465A464846711807F06FFF5D
:100CD0000028F3D1144BC5F800463E44C5F804463D
:100CE000C5F80846C5F80C46C5F81046C5F81446C0
:100CF000C5F81846C5F81C46C3F80046C3F80446B4
:100D0000C3F80846C3F80C46C3F81046C3F81446A7
:100D1000C3F81846C3F81C46BCE700BFC423002034
:100D2000008001503546526E009001502DE9F04F81
:100D3000002604460D46B0465827DFF8189295B0B5
:100D4000012E84F8B8601DD90026834F17F8011BC7
:100D500001290CD13046FFF7FFFB0EA9C0B201F00C
:100D600009F8014618B90E98826807F035FF002E81
:100D700000F0E280B8F1000F00F0538100232C272F
:100D80005826E1E0A31993F8B910002959D107FBBF
:100D9000064209EB8633536203F500433046136580
:100DA000FFF7DAFB94F8B810C0B207FB014120311D
:100DB00000F0E0FF60B901213046FFF7CDFB94F869
:100DC000B810C0B207FB01414C3100F0D3FF00B1B5
:100DD000FEE72046FFF788FE58BB0021204607F0BB
:100DE000FAFCF8B9204607F079FD002808DD01215A
:100DF00094F8B820594B03F8321003EBC203586043
:100E0000204607F027FD68B10AA807F00DFD07F09E
:100E100014FD064658BB94F8B830BBB900212046F3
:100E200007F0D9FC012294F8B830234483F8B020AD
:100E300007E0012294F8B8309042234483F8B020B0
:100E4000CBD194F8B8600136F6B279E794F8B020C7
:100E5000042A04BF012284F8B020012BDED094F8CC
:100E6000B130042BDAD1012384F8B130D6E79DF8F4
:100E70002F30012B4ED1582294F8B83002FB034397
:100E80000022D96A0E92364AD86C91422BD1998EA3
:100E900004230EAA194407F075FEF8B14FF0050AB5
:100EA00094F8B830234483F8B0A094F8B8306BB10C
:100EB000E21892F8B020012AC3D0042A0CD094F88A
:100EC000B020042A02D1012284F8B020234493F8F0
:100ED000B030023B022BB4D8B046B2E7022194F8FE
:100EE000B8301D4AD15494F8B80004F0E9F8831ED4
:100EF000022B8246D4D801212046FFF71BFE194B56
:100F00001B689842CCD0184B1B689842C6D14FF052
:100F1000010AC5E701212046FFF70CFE114B1B68B3
:100F2000984218BF052294F8B83008BF9DF82F20CA
:100F3000234483F8B020B8E7012607E7E21892F8C7
:100F4000B91099B10133DBB2012B84F8B830F5D96F
:100F500067E000BFC4270020024F0120C427012002
:100F60003DB8F396C02300200420002092F8B01072
:100F70000EA801F0FB01013918BF0121794306FBDE
:100F8000031203FB061101232244D2F820802144DE
:100F900000934246402307F0EBFA00285FD100237C
:100FA0000DF1160206A90EA807F030FB002838DB69
:100FB00052D1BDF816300C2B53D14046069907AAE2
:100FC00007F0E0FD68BB9DF81C30012B29D8E21822
:100FD00092F8B0207343023A022A8CBF0022012209
:100FE00007FB02332344197D9DF820209142D6D877
:100FF0000AD3597D9DF821209142D0D804D3DA8AB2
:10100000BDF822309A42CAD294F8B830234493F8FB
:10101000B020012A1ED0023A012A02D8012283F808
:10102000B02000274FF0FF094FF05808012F84F837
:10103000B8701BD90023DFF86C829B4E9B4F0E9338
:10104000012B84F8B83040F2D3800E9A022A00F0C7
:101050000981FEE70422E2E794F8B83072E703283A
:10106000DFD140F20113A4F8B030DAE7E21992F8C8
:10107000B960002E40F0B7800AA807F0D5FB92F8BF
:10108000B030042B8DF82F3006D8012B06D800F095
:10109000A08082F8B0909CE0052BF8E708FB07439E
:1010A00019463846DA6C2C3108F0EBFA012807466D
:1010B00040F08F8001460EAA20460E9607F015FBE1
:1010C00094F8B8A006A908FB0A431B6A07EB4A0775
:1010D000187800F04FFE764B4FF0580B13F82700AE
:1010E000374607A900F046FE94F8B83008FB0343E2
:1010F000D3F828A0BA4517D094F8B83031460BFB86
:1011000003435B6A069803EBC7035A68039207F030
:1011100063FD039A0E9B16449E4262D3D4F8B460DA
:10112000B3FBF6F306FB0366D4F8B40007F0CAFA83
:10113000582394F8B82003FB0242536A926A196854
:10114000013A03EBC20300225F689C463A44904296
:10115000A3F10803F8D8DCF800300698591A07F014
:101160003BFDDDE906210023204601960093FFF7B1
:1011700087FD70BB069803F02DFF50BB582794F8ED
:10118000B800324607FB0043196A08F088FA0146A6
:10119000F8B994F8B830079807FB03431B6D5A68F9
:1011A00007F01AFD94F8B83007FB0343D3E9142382
:1011B000013B52F8331002EBC30013684268C91AAE
:1011C000079807F009FD069807F0DBFC079807F081
:1011D000D8FC94F8B830234493F8B030FF2B02D1F8
:1011E000FEE7013786E794F8B8700137FFB21DE7D4
:1011F000234493F8B9208DF81C209DF81C2002F0A0
:10120000FF013AB10E9B01330E9394F8B8300133CD
:10121000DBB215E793F8B030012B11D0204607F070
:10122000DAFA68B1D8F80050102200210AA807F0B5
:1012300067FE204607F0B1FA284615B0BDE8F08FEA
:1012400000212046FFF776FC33688342EAD1D8F8C4
:1012500000209A42E6D03A689A42D3D1E2E784F875
:10126000B8201CE094F8B93023B194F8BA30002BC0
:10127000F5D10123582684F8B83006FB0343186AD9
:1012800007F05BF9287194F8B83006FB03431B6A3A
:101290005B68AB6094F8B83003FB06462E60024BE7
:1012A0001D68C1E708200020C02300200420002082
:1012B000ECB8000038B5064D0446BC220021284693
:1012C00007F01EFE21462846FFF730FD38BD00BF5F
:1012D000D42701202DE9F8432E4F3B7833BB3C7ACD
:1012E00024BB2D4DDFF8B480012C85F8B84015D80B
:1012F000582606FB045208EB843300215362204633
:1013000003F500431365FFF727F995F8B810C0B24D
:1013100006FB0151203100F02DFD50B11E4807F0B1
:101320003CFABC2200211C4807F0EAFD1948BDE840
:10133000F88301212046FFF70FF995F8B810C0B2E5
:1013400006FB01514C3100F015FD0028E6D195F85F
:10135000B860DFF84C907600284659F82610FFF761
:1013600093FB88B9013659F826100B48FFF78CFB20
:1013700050B9094807F0B2FA0028C1BF012307F8A5
:10138000343007EBC404606095F8B8400134E4B22F
:10139000AAE700BFC4270120D4270120C4270020CA
:1013A000ECB80000BFF36F8F72B600234FF0FF3030
:1013B000094A03F120010133102B42F82100F8D132
:1013C00000234FF0FF30044A03F160010133102B7A
:1013D00042F82100F8D1704700E100E02DE9F84320
:1013E0004FF0FF3501274FF00008204BDFF88090C9
:1013F0005F60C3F84853C3F8085303F580535F6038
:10140000C3F84853C3F8085359F8044B002644F373
:101410000730C4F8085301F0D9FD80226760C4F892
:101420004C61D4F84C31C4F81061D4F81031C4F8D0
:1014300044613146D4F84431A018C4F8006507F07F
:101440005FFD8022314604F5C07007F059FDB8F108
:10145000000F08D0074BC3F808554FF05023C3F8CE
:101460000853BDE8F8834FF00108CDE70040015074
:1014700000B9000000700150014B1B68184700BF05
:101480000C20002007B50B460021024600910348BE
:1014900000F006F803B05DF804FB00BF791400000B
:1014A0002DE9F04F82464FF000098DB01D46531EC6
:1014B00001910393039B58785C1C252819D10020C7
:1014C0004FF0FF381E4644460346023602903178FC
:1014D0000396392955D81F2914D8002900F0EF8127
:1014E00001992520D04701993078D04709F10209A8
:1014F000E0E7002800F0E3810199D04709F10109F4
:101500000394D7E7A1F12002192AE9D801A757F8D7
:1015100022F000BF7D150000E1140000E11400007E
:101520007D150000E1140000FD150000E11400002D
:10153000E1140000E1140000E1140000491600006D
:101540007D150000E11400005D1600000916000082
:10155000E1140000171600003716000037160000CF
:101560003716000037160000371600003716000047
:1015700037160000371600003716000008460136FF
:10158000A5E7582900F0EB80A1F16302D7B2172F2D
:10159000A6D8172AA4D801A757F822F005180000EA
:1015A00083160000E1140000E1140000E1140000C3
:1015B0006316000083160000E1140000E11400002F
:1015C00063160000E1140000E1140000E1140000C3
:1015D00039170000E1140000E1140000D9170000E1
:1015E000E114000083160000E1140000E114000083
:1015F00039170000E114000063160000252001994E
:10160000D04709F1010955E7029A4FF0000802F0AE
:10161000FE020292B3E7002C0DDAB8F1000F0DDAEA
:10162000029A002A00F043810A2224EAE47402FBB1
:101630000414303CA3E7B8F1000FF5DB0A2202FBEB
:101640000812A2F130089AE7B8F1000F55F8042B00
:1016500080F22F81002A80F22E81544202220292CF
:101660008DE7682903D1682B06D1482387E76C29C9
:1016700002D16C2B00F02181002B7FF431AF0B469F
:101680007DE77A2B06D1752955F8046B14D14FF0FC
:10169000000B0CE06C2BF6D04C2BF4D1073525F069
:1016A0000703752903F10805D3E9006B06D120284B
:1016B0003BD1854F013C09E04FEAE67BBBF1000FCF
:1016C000F5DA7642814F6BEB4B0B013C0DF12D03AC
:1016D000059300230493304659460A220023FEF75F
:1016E00039FD059BB446303203F8012D5A46059367
:1016F000049BBCF10A0F8B4672F1000203F1FF312B
:1017000006460491E7D2C3F1010B30330DEB03061B
:10171000B8F1000FA6F104066DDA029BD9077DD45B
:10172000A8EB0B03A4EB0B0413E02B280ABF684FB4
:10173000684F04F1FF34C9E770290FD155F8042B25
:101740000023FAB96FF004034FF0050B614F624EAE
:10175000053C029A920770D4A04666E078216C2B73
:1017600003D1002355F8042B08E04C2BF9D10735A1
:1017700025F007031D465B6855F8082B232825D163
:10178000880621D5554F023C002601F06001A1F1E9
:10179000390B0DF12D0E02F00F01092988BF5944B4
:1017A00030310EF8011D102A4FEA121141EA03717F
:1017B0004FEA131C73F1000306F1FF3008D2C6F1A3
:1017C000010B06F13003A1E7454FDCE7414FDBE7B2
:1017D00006460A466346DEE755F8046B304607F0D6
:1017E00056FBB8F1000F834602DB4045A8BFC34655
:1017F0004FF00008374FA8EB0B03002B92DDA4EB52
:101800000804A6E755F8043B4FF0010B8DF818309B
:10181000304F4FF0FF33013C06AE9AE7A046EAE7AF
:10182000029320200199D047029BB8F10108F7D517
:1018300024EAE472013C9144A41AB84606E00493F9
:1018400002920199D047029A049B9046424612F8B0
:10185000010B0028F3D11A46013A15D5002BACBF75
:10186000C7EB03077F425B46013B15D5BBF1000F79
:10187000A8BF5F4426464F44013E14D5002CA8BFA4
:101880003F1907EB080915E60493029230200199ED
:10189000D047049B029ADFE70293019916F8010BE7
:1018A000D047029BE0E701992020D047E4E70122DE
:1018B000D5E6904663E6144661E64C235FE648466B
:1018C0000DB0BDE8F08F00BF80BE00007EBE0000FE
:1018D00082BE0000B0BF00008ABE000084BE0000CF
:1018E00087BE0000044608B5EFF31183202383F37D
:1018F0001288BFF36F8F03F031FA204601F022FF08
:10190000024807F04FF807F06BFAFCE790BE0000C2
:101910002DE9F043079D15B91560002012E003245E
:10192000B5FBF4F404EB4407BD4218BF0134B4F135
:10193000804F09D2A40001348C4200D838B96FF02E
:101940000B001460BDE8F0834FF0FF34F7E7044666
:101950000021DFF8B4E0B94203F1030C04F10406FE
:101960002BD3A942274623D201F1010CAC451F78A5
:1019700028BF002324494FEAA70E38BF5B7811F82F
:101980000EE0AC4584F800E001EB131E2EBF3D23B2
:101990009B0003F03C034FEA071738BFCB5C07F00E
:1019A00030071EF80770A3703D2367703746E37059
:1019B0000023381A10603B70AFE71CF8034C1CF88A
:1019C000023C4FEAA4091EF8099024011CF8018C7E
:1019D00004F0300406F8049C0EEB131919F80440C7
:1019E0009B0006F8034C03F03C030EEB9814E35CF9
:1019F00008F03F0806F8023C1EF80830344606F8A6
:101A0000013C03316346A6E739BF00002DE9F043EE
:101A100000273C463D46DDF81CE0DFF8288175458F
:101A20001FD3E4BB00201460BDE8F0830136764587
:101A300033D013F806C0BCF1200FF7D0AEEB060987
:101A4000B9F1010FA6EB05050DD0BCF10D0F0AD1C0
:101A500003EB060999F80190B9F10A0F6ED1751CD4
:101A6000DDE72E46E3E7BCF10A0FF8D02DB9BCF153
:101A70003D0F05D10137022F0DD96FF01500D3E7C7
:101A80001CF0800FF9D118F80C507F2DF5D03F2DA8
:101A900001D8002FF1D10134E1E73546C1E74FF01D
:101AA000060C04F00706E4080CFB06F60CFB04F435
:101AB0000736E41B04EBD60470B18C420CD8002727
:101AC000014603263C46DFF87CE0DFF87C801D44BD
:101AD0009D4205D10C1AA5E76FF00B001460A3E737
:101AE00013F8019BA9F10A0C5FFA8CFCBCF1160FEC
:101AF00004D848FA0CFC1CF0010FE9D01EF809C00C
:101B00000134BCF1400F08BF013E0CF03F0C042C27
:101B10004CEA8717DCD17EB13C0C012E0C7002D14F
:101B200001310024D4E7022E4FEA17244C7016BF6F
:101B30008F7002310331F4E73446C9E7002DA2D09B
:101B40009BE700BFB9BE0000F6FFBFFF2DE9F047DD
:101B5000058B04462807904611D4022905F0070595
:101B600040F0CC80204606F034FF78B10138218B5C
:101B7000042811D8DFE800F0C2106D859500012916
:101B80000CBF45F0100545F02005258388F311882A
:101B9000BFF36F8FBDE8F08701F0070AAA4500F098
:101BA000A5800027B9463E46A368002B00F0BC8004
:101BB00041F00801218388F31188BFF36F8FA1687A
:101BC000002900F0BA800D68002900F0B680334685
:101BD00052462046D1F80480C047002D76D02B68AD
:101BE00029461D46F0E701F007035A1F012A1BD8BA
:101BF000002221F00701062B276889B2C4E90022E0
:101C000009D13B4603E0628B013262831B68002BE3
:101C1000F9D141F002012046218306F0DAFE0028C6
:101C20007AD041F0200176E0042B0AD121F007019F
:101C300089B22046218306F0CCFE10B141F020018C
:101C40002183218B01F0070AAA454FD00027B9460E
:101C5000AAE7236921F0070141F00601062DD3F818
:101C6000009021832DD1B9F1000F3FD041F0080140
:101C7000218388F31188BFF36F8F20463949C84705
:101C800029E021F00701236941F0040189B2042D04
:101C9000D3F804902183E6D000274FF0040A3E4693
:101CA00082E721F00701236941F0050189B2052D82
:101CB000D3F808902183D6D000274FF0050A3E467E
:101CC00072E700274FF0060A3E466DE72B4687E78E
:101CD000B9F1000FD1D1EFF31188202383F31288DB
:101CE000BFF36F8F238B23F008032383258BEA0632
:101CF0002ED525F01003238305F007056669218B97
:101D0000002EBFF670AF00232768C4E9003321F02E
:101D1000070141F001012183218B4FF0000901F0FF
:101D2000070AAA457FF440AF002F9CD041F008017C
:101D3000218388F31188BFF36F8F002FC8D03D68CF
:101D4000394633465246204606F06FFE2F46F4E7EA
:101D5000AB067FF51BAF25F02003238305F00705B5
:101D600000E700BF578A0000014B03600020704766
:101D700008B9000070B5104B0D461C68B4B10F4B8C
:101D8000196800238B4202DB6FF0010070BD224610
:101D900012F8106B864202D014460133F2E7E06875
:101DA00009F0ABF928B100202C60EFE76FF00C00D0
:101DB000ECE76FF01200E9E71020002008B90000FE
:101DC00010B5436888B0029383680C46CDE90332AE
:101DD00000230A68C068CDE90623054901AA0593D6
:101DE00007F069F9079808B9059B236008B010BD92
:101DF000258C000008B5054806F0D4FD044806F01F
:101E0000D1FDBDE80840034806F0CCBD79BF000015
:101E1000B1BF0000E4BF0000014806F045BA00BFB2
:101E2000BCB9000038B5044618B90F4B0F485B68C1
:101E300098476168B1F5683F10D0B1F5680F0DD0D3
:101E40000B4DA9420AD011F46861206807D0014601
:101E5000084809F0ADF900232360656038BD1422FD
:101E600007F04EF8F9E700BF3821002012C000004B
:101E70002C5F5CA9902D012008B560B34368B3F5D1
:101E8000683F0ED0B3F5680F18D0144A934220D0A3
:101E900000684FF0FF324FF0FF3305F0FDFB58B103
:101EA00015E001220368D3E8EF1F002903D1C3E83E
:101EB000E02F0028F7D10AD1002008BD0368084AA6
:101EC0001B7803F5807352F82330002BF4D00548BB
:101ED000F3E70548F1E76FF4E040EEE72C5F5CA91B
:101EE00000000350E98FFFFFEA8FFFFF08B520B322
:101EF0004368B3F5683F09D0B3F5680F13D0114AB2
:101F000093421DD0006805F03FFC14E000220368F6
:101F1000D3E8EF1F012903D1C3E8E02F0028F7D150
:101F200009D0094808BD00210368084A1B7803F559
:101F3000807342F823100020F4E76FF4E040F1E7EB
:101F40000348EFE72C5F5CA9E98FFFFF0000035017
:101F5000EA8FFFFF10B5044618B91D4B1D485B689A
:101F600098476368B3F5683F2FD0B3F5680F2CD05E
:101F7000194A934219D1236803BB4FF0FF324FF047
:101F8000FF332146154805F059FB08B923681BB9F2
:101F90000F4B13485B68984714220021206806F015
:101FA000AFFF4FF46863636008E0B3F5683F0DD896
:101FB0003A2B03D040F6BA629342DED1206809F092
:101FC00041F9636843F03A03636010BD054AF3E7E3
:101FD0003821002012C000002C5F5CA9902D012048
:101FE00038C000003A00003A08B5064940231422E0
:101FF000054809F0CFF8BDE808400449044806F058
:10200000C5B900BF90280120902D0120C4B900005F
:10201000D8B90000F7B5224E30688368DB6B03B196
:10202000984730688368DB6A002B31D11D4C1E4D08
:10203000306883681B69002B2DD001220DF1070148
:102040009847012827D1236843B92B681BB36968D7
:102050001A688B422A6008BF6A602360134A9DF8A1
:10206000070011887F2904D823684F1C0B44178070
:1020700018720A28DCD10020236811881860596082
:102080000B494D684DB9C1E9003310802060CEE79F
:1020900098470028CAD103B0F0BD2B604B60F4E72D
:1020A00004320120AC2D0120BC2D0120003601207E
:1020B000B42D012010B5044B044618688368E1B2C2
:1020C0005B689847204610BD04320120F8B50546EC
:1020D00016460846EFF31187202383F31288BFF3D7
:1020E0006F8F1B490B684BB11A4C62689A4205D03E
:1020F00000221A60626862B9C4E90033164A1368A4
:1021000053B987F31188BFF36F8F18460B603360A4
:10211000F8BD13606360F1E7D2F804C01C68634542
:10212000146008BF546087F31188BFF36F8F5C6839
:102130000B60A042D8BF00F1FF3403F10801224632
:10214000284606F0D2FE0023601C2B550123DEE753
:10215000B02D0120BC2D0120B42D0120002313B58A
:102160001C462049204AC1E90033C2E900331F4A16
:102170004868146020BBC1E900220133082B02F13A
:102180008802F5D11A4C1B48206008F0B6FF28B32E
:102190002068836823B11B6C13B10022164998474D
:1021A00020688368DB6A0BB1984760B12068836858
:1021B0001B69002BFAD001220DF107019847F4E7C3
:1021C00002604A60D9E700220C4B20681A808368BD
:1021D0001B6A03B19847002002B010BD4FF0FF30DA
:1021E000FAE700BFBC2D0120B42D0120C42D012031
:1021F0000432012040B50000152000000036012007
:1022000041F204432DE9F043ADF54F7DADF80830C0
:1022100040F606130025ADF80C30DFF81091444B62
:10222000D9F800101B68434E4D70A3EB06080B78DD
:1022300028465A1C62F302030B7098FA98F34B80FD
:102240008B8808225BBA8B8006F096FB31464246AB
:10225000ADF8100006F090FB02271FFA88F440BA90
:1022600004F10A035BBA0222ADF810000DF112016D
:1022700006A8ADF8123006F038FE0822D9F8001092
:102280000DF11A00ADF8127006F02FFEBDF8120025
:1022900006AB083080B231464246ADF81200184411
:1022A00006F023FEBDF812303A461C44A0B22C467C
:1022B00006ABADF8120004A9184406F016FEBDF8EE
:1022C000123040F2C9113B449BB2ADF8123000937A
:1022D00005AA06AB5BA8FFF71BFB059B164E174F25
:1022E000ADF81230BDF81230A34203DC0DF54F7D7E
:1022F000BDE8F083336802215B68A4B903A898475E
:10230000BDF8125033682D1B7C2DA8BF7C255BAA1D
:10231000101929465B6898473368012138465B6885
:102320002C449847DEE702A8E9E700BF68320120A5
:1023300020320120044F01206C320120AFBF000089
:102340002DE9F04F4FF0FF34D5B00B4605940694BD
:102350000794012100240DF128080246C8E9004431
:1023600030A80091CDE9014404210894099408F0B3
:10237000BBFB4022214620A806F0C2FD8E4B032164
:102380001C93052304221D938C4B06AFCDE91E3709
:102390008B4B8C4821938C4B05ADCDE923388B4B6F
:1023A00007AE26938A4BCDE92B01CDE92836CDE93E
:1023B0002D35279109AB1CA930A8229206F09EFC6E
:1023C00020B303240A21834808F07EFE82490222BA
:1023D000804808F06CFE21467E4808F051FE4CB95A
:1023E000784903227B4808F062FE7C4B79481968E3
:1023F00008F050FE0A21774808F06EFEFFF700FF54
:10240000089806F0BEFB55B0BDE8F08F2B68D8E900
:1024100000985A1CD5D0B9F1000FD2D0DFF8C0A176
:1024200033B93A68B2F1FF3F18BF1346CAF800301B
:10243000DAF80000FEF7A2F808A9C0B2FFF79AFC8C
:1024400004460028BDD12B68644D002B48D1089F5D
:1024500028603846D7F808B006F039F9614A0146D5
:10246000384606F06CF808B10124ABE733685B45E9
:10247000A7D85D4A14605D4A13602A685A4E4244E8
:1024800031680898013A06F01AFC0028306098DBA1
:10249000089806F0B9FBB8FBF0F303FB1086DFF8F1
:1024A0004CB12B68A8EB06079844DBF8003008987D
:1024B000984538BF002606F0A7FB012806D90898E2
:1024C00006F0A2FB013819EA000F51D13B464A46FB
:1024D0002968089806F06BFB00287FF472AF2DE0A6
:1024E0002A6893427FF46EAF404A43441268934295
:1024F000C3D966E7B845089828BFB84606F08BFBF5
:10250000402201460CA806F0FBFC424649460CA8B6
:1025100006F0EBFC4346296808980CAA06F047FB36
:1025200008B104464EE72B68C14443442B60A7EB37
:102530000807089806F068FBB842DBD9DEB92B68BB
:10254000DBF8002033443B4493422B607FF43AAFE6
:10255000244B08981A68114606F0B1FB002883DB6B
:10256000DBF800200899DAF8000007F09EF8D8E7B9
:102570004FF04008DDE7089806F04DFB08220146C1
:102580000CA806F0BDFC324609EB07010CA806F0CA
:10259000ACFCDDF820802968404607EB010906F015
:1025A00033FB494603460CAA404606F000FB0028D0
:1025B0007FF407AFC3E700BF65C00000D7AD0000E0
:1025C0006BC0000074C00000E1AD000070C00000EE
:1025D000DDAD00002032012065BD00001832012071
:1025E0001C320120103201200C320120083201205F
:1025F00038B505460A4C0A21204608F065FD02223E
:102600002046084908F053FD2946204608F038FDC9
:1026100020460A2108F060FDBDE83840FFF7F0BD14
:102620002032012065BD0000F0B50C68164F85B062
:1026300002380D46C4F580610090144B381903AA86
:102640000131FFF7E3F90446D0B92B68039A13442C
:10265000022B2B6011D93E88023B76BAB6B29E425D
:102660000BD13246B91C06F087F930B9022E04D9D5
:102670002B689A1E2A60FC540124204605B0F0BD48
:102680004FF0FF34F9E700BF4D50012050540120B6
:10269000002307B502210093044A4FF4A4730448B1
:1026A00008F01CFD03B05DF804FB00BF044F0120DF
:1026B000203201202DE9F04F072904469FB040F257
:1026C000C880037813F0050F40F0C3804388A1F160
:1026D00008055BBA9BB2AB42C0F0BB80A74B00F1D0
:1026E0000807186083885BBA8380FFF7D1FFA6884C
:1026F000012E40F09E81E379012B00F0AD80062B86
:1027000000F0B180002B40F09A81247814F0070487
:1027100040F0958131469A4808F0D6FC0622994946
:10272000974808F0C4FC0521954808F0C9FCDFF87B
:102730005882DFF858920026954F00E00126314676
:102740002046D8F80050FDF707FF05A9C0B2FFF7F3
:1027500011FB824650BB3146204606AA06F062FFB6
:10276000012805D120235146059806AA06F00AFA49
:10277000069B4B4514D13146204602F0F7FB054637
:10278000844B1B6898420BD100204023CDE9020006
:102790000093059A01900EAB06A9FDF76BFF054665
:1027A0003B680598AB4207D006F0EBF9002EC5D088
:1027B000002C44D13446BEE706F0E3F914217048FA
:1027C00008F082FC052274496D4808F070FC21462F
:1027D0006B4808F05FFC04227049694808F067FC08
:1027E0003146674808F056FC07226D49644808F0F6
:1027F0005EFCBDF82E30402101939DF82D30694AD2
:1028000000930EA89DF82C3000F084FE0C9B4BB179
:10281000421E3E2A06D80EADC0F14001624A28444D
:1028200000F078FE0EA806F032FB0EA902465448CE
:1028300008F03DFC1421524808F04EFCB6E7052193
:102840004F4808F045FC01214D4808F045FCFFF7D2
:10285000D7FC1FB0BDE8F08F294638461FB0BDE851
:10286000F04FFFF76DBD23785B0702D00820FFF71C
:10287000BFFEFEF72FFD01210746414808F024FC6A
:10288000062240493E4808F012FC02213C4808F06C
:1028900017FC0025DFF814910421394808F014FCD6
:1028A000002847D005223C49354808F000FC0028A4
:1028B00040D02946324808F0EDFB00283AD00522E6
:1028C0003B492F4808F0F3FBA0B302212C4808F045
:1028D000F7FB78B300262A4CDFF8C0A0DFF8D4B0AD
:1028E00022E004225146204608F0E1FB10B33146B5
:1028F000204608F0CFFBE8B131462846FDF72CFE14
:102900000EA9C0B2FFF736FA8046C8B10222494686
:10291000204608F0CCFB68B14146204608F0B0FBE9
:1029200040B1002E64D101260321204608F0CCFBE3
:102930000028D6D1FFF7ACFE0220FFF759FE86E74C
:1029400004225946204608F0B2FB90B10E9B204667
:10295000996808F09FFB60B10F222046164908F0E5
:10296000A6FB30B106EB45012046013108F092FB91
:1029700020BB0E9806F005F9DCE700BF68320120A5
:102980002032012078C00000082000203DB8F396D6
:10299000C02300200020002065C000007FC0000090
:1029A00084C000008CC0000098C0000065BD00001D
:1029B0009CC00000BCC00000A2C000000E9806F041
:1029C000E0F80321204608F087FB0028B2D0002E53
:1029D000A9D002212E4808F07BFB0028AAD017F8C6
:1029E000353043B904212A4808F076FB0028A1D0ED
:1029F0008DB9012550E70E222649254808F057FBDE
:102A0000002897D03B1D53F83510214808F042FBB1
:102A10000028E7D18EE702211D4808F059FB002865
:102A200088D001211A4808F057FB00287FF40FAF27
:102A300080E7F6B9E379012B07D0052B07D00820F2
:102A40001FB0BDE8F04FFFF7D3BD3046F8E7304682
:102A500006F032FE01280AD03046FFF7C9FD4FF4D8
:102A60000050002108F098FC0120FEF73BFF0A20EF
:102A7000E6E72A4639462046054BFDF791FD00283A
:102A80007FF4E7AE1FB0BDE8F04FFFF7B9BB00BF62
:102A900020320120B2C0000001232DE9F3410025BE
:102AA0000646DFF8C080304C88F800302F4B304F9E
:102AB0000095186098F8003013B902B0BDE8F081B5
:102AC0002C4BC5F58061C3F80046C3F80446C3F833
:102AD0000846C3F80C46C3F81046C3F81446C3F8BA
:102AE0001846C3F81C4603F58053C3F80046C3F8E4
:102AF0000446C3F80846C3F80C46C3F81046C3F8AA
:102B00001446C3F81846C3F81C46336801AA0131BD
:102B1000781998470028019B01DC002BCAD0054496
:102B20002BB940F201439D42C4D10025C2E73B7856
:102B3000062B09D17B78092B0BD100230093694622
:102B4000A81EFFF771FD04E0042B02D17B78142B43
:102B5000F5D00128E9D1009907480239FFF7AAFD0D
:102B6000E3E700BF4C5001203546526E6C32012025
:102B70004E540120008001504F50012030BFFFF71C
:102B8000FDBF00BF074A936893F90E10002907DBC9
:102B9000526993421FBF044A536843F08053536005
:102BA000704700BF0434012000ED00E0154B9A6A25
:102BB00012F0007F9A6A14BF1E201D2012F0807F41
:102BC0009A6A18BF1F2012F4801F9A6A18BF022049
:102BD00012F4002F9A6A18BF212012F4802F9A6AEB
:102BE00018BF222012F4003F9A6A18BF232012F463
:102BF000803F9A6A18BF24206FEA02426FEA1242AD
:102C00009A62704700ED00E010B5194B0246986AD1
:102C10009C6A10F4805F14BF1720162014F4006F14
:102C20009C6A18BF1820A40509D5986B986A0004FF
:102C300004D51AB19A6A22F400429A6219200C4B08
:102C40009A6A12F4806F9A6A18BF1A20D2050CD4BF
:102C50009B6A13F4005F18BF1C20054A936A43F473
:102C60007F43936200230B7010BD1B20F5E700BF6C
:102C700000ED00E010B51C4B0246986A9C6A10F00B
:102C8000100F14BF1120102014F0080F9C6A18BFF9
:102C90001220A40709D5586B986A000604D51AB10A
:102CA0009A6A22F080029A6213200F4B9A6A12F0FD
:102CB000010F9A6A18BF142012F0200F9A6A18BFE9
:102CC0001520D40658BF9B6A074B9A6A920642BFEA
:102CD0005A6A22F400525A629A6A42F0FF029A62D9
:102CE00000230B7010BD00BF00ED00E070B5444B39
:102CF00006465B6800258AB0C3F3080385F3118894
:102D0000BFF36F8F02F07F40B0F17F4F11D102F01F
:102D10000C0008280DD010074CBF0E4601250022DC
:102D2000033B8DF80720032B05D8DFE803F01E5C7A
:102D300060592E46F3E700249DF807309BB9202206
:102D4000314602A806F0D1F8099B002D53D0C3F3F9
:102D5000080222B96FEA53236FEA432309932046FE
:102D600002A906F01DF80AB070BD254BDA6A91077A
:102D7000E1D4DA6A002ADEDBDA6A5200DBD55A696E
:102D8000B16942F480725A61BFF34F8FBFF36F8F06
:102D90005A6931F8021C22F480725A61BFF34F8FD6
:102DA000BFF36F8F4DF60272914209D09A6AD2B288
:102DB00042B101200DF10701FFF75CFF0446BBE7BC
:102DC0003468B9E79A6A12F47F4F05D001200DF1FB
:102DD0000701FFF719FFF1E79B6AB3F5803FAAD31C
:102DE000FFF7E4FEEAE700200DF10701E4E7002029
:102DF0000DF10701EDE723F4FF7323F00103ADE7C5
:102E000000ED00E0064B5A6942F010025A615A691F
:102E100042F480625A615A6922F008025A6170478E
:102E200000ED00E0EFF30880EFF3098101B5724691
:102E3000FFF75CFF01BD00BF002080F31488BFF3E3
:102E40006F8F002080F30A8880F30B880F4880F38F
:102E5000088802F0DFFF00200D490860BFF34F8FA4
:102E600000F02CF8202080F311880A484FF400610C
:102E7000401880F30988EFF314800221084380F39F
:102E80001488BFF36F8F00F0D9F80000B8890520CF
:102E900094ED00E078580520002318460649D1F843
:102EA0009020C2F30722934200DB7047C1F89830AC
:102EB000C1F8A0000133F6E700ED00E010B572B6EE
:102EC000002484F31388FFF7E7FF23464FF0FF3019
:102ED0000C4A03F120010133102B42F82100F8D1F4
:102EE00000234FF0FF30074A03F160010133102B3C
:102EF00042F82100F8D162B6BFF34F8FBFF36F8F56
:102F000010BD00BF00E100E0084B9B6883420BD17D
:102F1000EFF3058343B1064B5A6842F080525A6082
:102F20005A6A22F400425A6204F00EBF04340120AF
:102F300000ED00E013498A684FF030001044EFF3D1
:102F4000098C80E8F01F202080F31288BFF36F8F78
:102F50000D4F4FF000664A698A603E60106F002393
:102F6000136780F3118802F1300090E8F01F8CF3B2
:102F7000098802F1000004B505F027FFBDE8044010
:102F8000704700000434012004ED00E01EF0040F3F
:102F90000CBFEFF30880EFF30980816911F8021C80
:102FA0000229FFD001B5724605F000FF01BD00BF48
:102FB00040B2002807DB01234109034A00F01F004B
:102FC000834042F82130704700E100E040B2002821
:102FD0000CDB01220649430900F01F008240203328
:102FE00041F82320BFF34F8FBFF36F8F704700BFAF
:102FF00000E100E0054B420953F82220012300F0D4
:103000001F0003FA00F01040704700BF00E100E02D
:1030100040B2002801F10101ACBF00F16040064B55
:103020004FEA4111C9B2ABBF00F5614000F00F009B
:1030300080F800131954704714ED00E00B4A08B5EE
:103040000B4B22F07F029A60BFF34F8FBFF36F8F5D
:10305000D3F8882022F47002C3F8882004F02EFAF6
:1030600004F0F4FE00F042F804F068FA00000000FA
:1030700000ED00E042F8203C009B0B4942F81C3C6C
:10308000019B21F0010142F8183C029B42F8081C08
:1030900042F8143C4FF0807342F8043C0023203A7D
:1030A00002650367704700BFBF89000000B5094B88
:1030B0000E4698601546036E83F30B882C4686F304
:1030C00009880020044B9847204600210022002355
:1030D000024C204704340120D38D0000BF8900003A
:1030E0001022014B1A61704700ED00E000232021FF
:1030F0000348C2180133452B82F80013F9D17047F9
:1031000000E100E008B5EFF30583064A103B02EB4F
:10311000C30152F8330049688847BDE80840FFF70B
:1031200031BD00BF90B500001FB5094C094A2346C8
:103130000121094800F0FAF800230393074B01210D
:10314000E41A01A80193029400F0FAF804B010BD4B
:103150000000072000200020E8B9000030220020F5
:1031600010B50C7A0B6804F01F0223F01F031A43FA
:10317000CB68640923F01F03054943EA440343F085
:103180000103C1F89800C1F89C20C1F8A03010BD1F
:1031900000ED00E010B5074BD3F89030C3F30723E0
:1031A000013B984202D8FFF7DBFF10BD6FF015001E
:1031B000FBE700BF00ED00E02DE9F04F0F4614469D
:1031C00006464FF000084D4D85B0B84580F292801C
:1031D000D6F80490B9F1000F36D0B9F11F0F40F2C4
:1031E000878019F01F0F40F08380D6F800A01AF0F6
:1031F0001F0F7DD1504605F028FE834609EB0A00DB
:10320000013805F022FE834572D11BF1160F6FD0F5
:103210005C456DDDC5F898B0D5F89C10C5F898B040
:10322000D5F8A03021F01F0143F01F0AD6E9003283
:103230001A44994202F1FF391ED1CA4508D13146DC
:103240005FFA8BF005F00AFE08F101080C36BCE7C6
:103250003146C5F898B0D5F89C3022F01F0203F033
:103260001F031343C5F89C30E0B205F0F7FD10F1E1
:10327000160F3DD0441CE7E7C5F898B0D5F8A0205C
:10328000013B23F01F0302F01F021343CA453146DE
:10329000E0B2C5F8A030E8D005F0E0FD10F1160F5F
:1032A00026D0C5F898B0D5F89C209DF808300AF1D2
:1032B000FF3A62F304038DF80830D5F8A0309DF88A
:1032C00008205B0863F347128DF80820D6E9003226
:1032D0001344009323F01F035344A3EB090301306D
:1032E00023F01F036946C0B20393FFF753FFBEE705
:1032F0006FF01504204605B0BDE8F08F00ED00E04A
:103300000522044BC3F89420BFF34F8FBFF36F8F98
:10331000704700BF00ED00E0BFF35F8F0022024B5B
:10332000C3F89420704700BF00ED00E010B5034CD7
:103330002278FFF741FF207010BD00BF4F580120D9
:103340002DE9F74F294D8A4606464FF00008AB4657
:10335000274FD0451BDAD6F80490B9F1000F3FD0C3
:1033600031680846019105F070FD0199044609EBAA
:103370000100013805F069FD84424FF014021D4B35
:1033800008D002FB08F36FF015024BF8032003B0DE
:10339000BDE8F08F14F1160F2C60F8D01978A14217
:1033A000F5DD02FB08B0C7F89840C7F89840D7F899
:1033B0009C4000F10801007B64F304000871D7F819
:1033C000A0000C79400860F347140C71D7F89C10EA
:1033D00021F01F016960D7F8A01021F01F012961B9
:1033E00008F1010814350C36B3E700BF7032012034
:1033F00000ED00E04F580120F0B54149414CD1F8B3
:1034000090302568C3F307239D4287B075D800200C
:10341000FFF782FF3C4BC1F8C030854216D13B4CD0
:1034200001A82570FEF7A0FC00250646384FAE42E5
:1034300013D1002023783249D1F89020C2F307221B
:10344000934254DBFFF75CFF00202FE0616801EB43
:103450000011FFF785FE0130DFE70199280101EB3C
:103460000513DA683A40B2F5001F21D0B2F5800F9B
:103470002BD0B2F5801F38D15A689B680958013BA0
:1034800022F01F0003440120844623F01F0340EA7A
:103490004C10CDE902218DF8100002A92078059387
:1034A000FFF778FE00281DDA6FF0150007B0F0BDB9
:1034B0005A689B680958013B22F01F0003444FF0F3
:1034C000020C012023F01F03E1E75A689B680958AA
:1034D000013B22F01F0003444FF0000C022023F0B8
:1034E0001F03D4E723780133237001359FE7C1F828
:1034F0009830C1F8A00001339EE74FF0FF30D5E7C8
:1035000000ED00E0F4B90000AAFF44004F5801208C
:103510000000F0FF0CB410B586B009B90DF10B0036
:103520000024CDE9040109AB089A009404A90548D8
:103530000393FDF7B5FF049B1C7006B0BDE8104077
:1035400002B07047138F000000F01F0240090DD039
:1035500001280DD1094B03EB8203D3F8002222F09E
:10356000E04242EA0171C3F800127047044BF2E7EF
:103570000023803253F82230FFDE00BF0028845041
:103580000025845038B50124134B144DC3F8004571
:1035900002230321C5F8D0360020FFF7D5FF2046CF
:1035A0000321FFF7D1FFC5F804472146C5F80449B8
:1035B0002120C5F8004BFFF7C7FF21462020FFF769
:1035C000C3FF21460B20FFF7BFFF21460A20FFF76C
:1035D000BBFF002038BD00BF00100050004000506D
:1035E00007B50DF1070002F039FD114B98421CD1CF
:1035F0004FF480620F4B1049C3F8B8254FF40062B6
:10360000C3F83C259DF8070007F046F90B499DF8E3
:10361000070007F03CF901209DF80730984002F0C0
:1036200017FD002003B05DF804FB6FF00B00F9E715
:103630000000AD0B00A002502CA0025028A10250A7
:10364000052370B5144D154E2C780134B4FBF3F3FB
:1036500003EB8303E41A05F0E1FF114A137823B169
:1036600056F82430C01A072814D94FF05023D3F845
:10367000141141B10021C3F81411D3F814312C7086
:103680000CB9012313702C7805F0C8FF46F824000C
:10369000012070BD0020FCE7515801208432012038
:1036A0005058012048B1054B054A1B68B3FBF2F3A3
:1036B0005843044B43F00103184770479020002003
:1036C00040420F00C0B800000149024805F0D0B9DF
:1036D0001CBA0000983201204FF47F032DE9F0411D
:1036E000D3F830210646072A0D46D3F8343120D1CD
:1036F000023B032B02D8124AD35CD3B14FF05024C3
:103700004FF0010800270520C4F81886C4F8147685
:1037100007F0BBF84046C4F8148607F0B6F8C4F8C2
:103720001476C4F8187630462B46BDE8F0410021E7
:1037300018474FF050230022C3F81426F3E700BFC8
:10374000D0C00000BFF34F8F0549064BCA6802F492
:10375000E0621343CB60BFF34F8F00BFFDE700BFB4
:1037600000ED00E00400FA05084B70B5C31A0D46E1
:1037700007499B10044659434022064805F0E7FBE1
:103780002B4601462046BDE870401847C83201204C
:10379000B76DDBB604B50000402373B50B4C009346
:1037A000041B0B460D460A49A41061430646094A0C
:1037B000094805F0F8FB011E05DA30462B4602B039
:1037C000BDE87040184702B070BD00BFC83201208C
:1037D000B76DDBB61190000004B5000010B5EFF333
:1037E0001184202383F31288BFF36F8F074A136875
:1037F00023F00201DB07116002D4012007F058F822
:1038000084F31188BFF36F8F10BD00BF68330120B0
:103810002DE9F8430022012106460520FFF7F8FBB9
:10382000114802F09BFC114B984219D102F0A6FC02
:1038300000244FF01C090C27DFF83480356941461D
:1038400009FB045005F014F9002807DB012307FBEE
:1038500004551C44042CAB67F0D10020BDE8F8836C
:103860006FF00400FAE700BF6D3900000000AD0BF7
:1038700028BA00001FB500220123CDE902236B46C0
:10388000084ACDF800D0CDF804D005F0BAFB0028E6
:1038900005DB4FF480420023684603F0F9FF05B0D2
:1038A0005DF804FB479000000C22104B014602FB20
:1038B0000033002030B4D3E91C521867EFF31180B5
:1038C000202484F31288BFF36F8F9C6F04F0C00430
:1038D00044F002049C6780F31188BFF36F8F1DB121
:1038E0002B4630BC0248184730BC7047C832012014
:1038F00004B5000010B4EFF31182202383F3128883
:10390000BFF36F8F1748016841F002040460C807D5
:1039100007D482F31188BFF36F8F012010BC02F02F
:1039200045BC4FF05021D1F80C04D1F80C14C90754
:10393000EFD5EFF3118083F31288BFF36F8F0A493D
:103940008B6F03F0C00343F002038B6780F3118891
:10395000BFF36F8F82F31188BFF36F8F002010BC0D
:10396000FFF7A2BF68330120C8320120092813D80D
:10397000DFE800F005101212121212120E0C074BA3
:10398000986F10F0070007D1FFF78EBF0220FBE70A
:103990000320F9E70120F7E7704700BFC832012094
:1039A0002DE9F041012207463649D1E8EF3FC1E851
:1039B000E02F0028F9D133B9334934484B60CB604C
:1039C0008A6005F068F87B1E012B2BD8012F07D1E8
:1039D0004FF05023D3F81C3403F00303022B21D003
:1039E00007F043FC0546F8B9294B1B78E3B14FF0CB
:1039F000502302220646C3F808234FF05024DFF874
:103A00009480D4F81824D4F81834D20315D503F0D0
:103A10000303022B01D0012F0FD16DB386F3118860
:103A2000BFF36F8FBDE8F081EFF31186202383F39E
:103A30001288BFF36F8F0125DFE7C5B1304605F06F
:103A4000E8F9D4F81835DBB2012BDAD1D4F8042127
:103A5000002AD6D00022C4F80421D4F8042102227E
:103A6000C4F818252022C8F88021A360C9E70021E6
:103A7000212007F091FCE4E74FF050230222C3F825
:103A80000423CFE7C4320120B4320120E432012004
:103A90007458052000E100E000F1744000F5A60034
:103AA0000A289ABF024B33F910006FF00F007047DD
:103AB0002ABD0000024B0B6001231360704700BF5A
:103AC000C0BA00000048704754BA00000268154BA5
:103AD000FF2A08BF4FF0FF32C3F824254268FF2AAF
:103AE00008BF4FF0FF32C3F828258268FF2A08BFBD
:103AF0004FF0FF32C3F83025C268FF2A08BF4FF0ED
:103B0000FF32C3F834250269FF2A08BF4FF0FF32A5
:103B1000C3F838254269FF2A08BF4FF0FF32C3F8C7
:103B20003C25704700B00250054B994206D14FF03A
:103B3000FF324FF0FF33103003F0AABE704700BFD2
:103B40000000AD0B2DE9FF470F4605461E46904687
:103B50004168002A77D0002B75D0042B01D9B30718
:103B600071D117F003046ED1002F6CDBCA6ABB1948
:103B7000934268D8284605F054FB204605F020FB08
:103B8000044648B1012005F01BFB284605F02DFB3B
:103B9000204604B0BDE8F087032E1CD83A46042125
:103BA000684606F036FF044601462869FFF7BCFF69
:103BB000264B9C4234D132464146684605F095F981
:103BC0003A460421684606F021FF0446014628696A
:103BD000FFF7AAFF24E008F06043B3F1005F02D1D1
:103BE00018F0030F2BD0DFF864A0102EB14628BFC9
:103BF0004FF0100941464A46684605F076F93A46C4
:103C00004946684606F002FF044601462869FFF768
:103C10008BFF544504D1B6EB0906C8444F44E4D1A8
:103C20002046FFF739FF0446012005F0C9FA064691
:103C3000284605F0DAFA002C08BF3446A8E73A46D1
:103C400031464046BFE76FF01504A1E70000AD0B19
:103C50002DE9F04F824688461C46174685B0002A5B
:103C600000F08F80002B00F088800029C0F289804E
:103C70004268CB18D26A934200F28380C8F10005F3
:103C800005F0030505F0CDFAA54228BF25467B4285
:103C900003F0030307F0030658BF5E42764206F0C6
:103CA0000306A64228BF2646631BA41B24F0030478
:103CB00023F00309A145C8BFA14603F0030BC8BF09
:103CC000A3EB040BB9F1000F18D0BB1908EB0502E8
:103CD00049461846019306F09CFE04460146DAF870
:103CE0001000FFF721FF284A94423DD1B54205D08C
:103CF000019B4A461946781905F0E0F8C5B1C5F1AF
:103D000004060421A8EB060202A806F082FE04467F
:103D10000146DAF81000FFF707FF1B4B9C4223D146
:103D200006F108032A4638460DEB030105F0DDF8DD
:103D3000BBF1000F17D0082108EB05024A440DEB38
:103D4000010006F066FE04460146DAF81000FFF7AF
:103D5000EBFE0D4B9C4207D109EB05005A4602A928
:103D6000384405F0C2F8084C504605F03EFA2046AB
:103D700005B0BDE8F04FFFF78FBE184605B0BDE8AF
:103D8000F08F6FF01500F9E70000AD0B2DE9F0475B
:103D9000C1F30B0307460E461546D0F804C0002AAF
:103DA0006BD0C2F30B0252EA030466D1002964DB34
:103DB000DCF82C204B1993425FD805F032FA2046EC
:103DC000D7F8048005F0FCF9044600284FD1DFF84D
:103DD000B090D8F82C30AB4221D106F01DFEAA4697
:103DE000044621463869FFF79FFE4C452CD15644C6
:103DF000A5EB0A0500214FF4A47007F0CDFA05F0F9
:103E0000C4F9041E30DB14F00104F3D1002DE0D11D
:103E1000012005F0D5F9002C08BF044627E0B5F5D0
:103E2000803F09D3B3B2A3B93146012003F0E6F9CC
:103E30004FF4803A0446D4E7B5F5805F09D21149C2
:103E40003869FFF771FE0F4C2046FFF725FE044648
:103E5000DEE7C6F30B000028F1D1314603F0CEF9BE
:103E60004FF4805A0446BCE7012005F0A9F9384612
:103E700005F0BBF92046BDE8F0876FF01504F9E7BF
:103E80000000AD0B0400AD0B2DE9F047436890B086
:103E90005D6B0746002128460AAA05F063FA041E56
:103EA0007BDB0A9B2A681979186800F0A1FB041EC5
:103EB00073DB002201212B20FFF7AAF800264FF028
:103EC0005023C3F8B865072007F012F9D7F804802B
:103ED0003A694046564903F0EBF8FFF7DDFD041E52
:103EE00051DB544D0AAC0FCD0FC495E80300AB2352
:103EF0000DF1040984E803000196C9E901668DF813
:103F000004304D4B0AA8D3F8242504ADD2B2049254
:103F1000D3F82825D2B20592D3F83025D2B2069232
:103F2000D3F83425D2B20792D3F83825D2B208920A
:103F3000D3F83C35DBB20993FFF7C8FD012003F04D
:103F400035F901462846FFF7C1FD3C4B994228D17F
:103F50003146484605F0E8F8041E14DB232007F03C
:103F6000C7F84FF0030A9F2331460AA8CDE90A6635
:103F7000CDF81090CDF814A08DF828300C9505F0F0
:103F8000D3F8041E10DA4FF050230222C3F8B825EC
:103F900003F02AF908B103F015F9204610B0BDE886
:103FA000F0876FF00404EEE75246494608F130000E
:103FB00004F074FF0446002834D17A68537F023B32
:103FC000012B2DD9167F023E022E8CBF0026012622
:103FD00005F0DBF8002828DBC2B2C0F3801086426F
:103FE000D1D00023012182F040020AA8ADF80030B0
:103FF0000A938DF80020CDF810D005910C938DF820
:1040000028100B9505F090F804460028BBD105F068
:10401000BCF8041E01DBE307F9D404EAE474B2E758
:104020000126D5E76FF01204ADE70446ABE700BF09
:104030001D91000090B8000000B002500000AD0BD0
:10404000024B0B6001231360704700BF6C330120EB
:1040500000487047C8BA000010B501220648114652
:1040600007F0F7F806F0BFFC044C206006F0B8FC3F
:104070006060002010BD00BF743301206C3301204C
:1040800070B50C46154606F0ABFC294606462046A0
:1040900005F0EFF808B3B4FBF6F306FB1343E3B9FE
:1040A000B5FBF6F306FB1353BBB9AE4201D90020B2
:1040B00070BD4FF0FF324FF0FF33094803F0E8FBCB
:1040C00006F08EFC0646204602F020FDAD1B34446F
:1040D000F9D1034803F0A8FBE9E76FF01500E7E723
:1040E000743301202DE9F0410D4619462846164645
:1040F0001C4605F0BEF8C8B314B90020BDE8F08135
:104100004FF0FF324FF0FF331A4803F0C1FB15F0B8
:1041100003070CD0C7F10407A74228BF2746314642
:1041200028463A4602F020FD3D443E44E41B002769
:1041300024F00308B84507EB050012D16FF0030225
:10414000A30802FB03421AB106EB080102F00CFDC2
:10415000094AD2F80034DB07FBD5064803F064FBBC
:10416000CBE7F15902F0F0FC0437E3E76FF01500FC
:10417000C4E700BF7433012000900350024B0B6072
:1041800001231360704700BFD0BA00000048704799
:10419000D8BA0000B1F5802F2DE9F7430D46174638
:1041A0001C462ED2C1F580239C422AD841EA04063F
:1041B00016F0030625D10422FF210DEB020004F0C6
:1041C0009FFEDFF8448008EB0509A64209D33A4672
:1041D00008EB05033C44A2420CD1002003B0BDE82B
:1041E000F083042209EB06010DEB020004F056FEF9
:1041F0000436EAE7197812F8010B014003F8011BB5
:10420000E9E76FF01500E9E752580120B1F5802F7A
:10421000104608B51A4609D2C1F580239A4205D83E
:10422000044B194404F061FE002008BD6FF0150036
:10423000FBE700BF52580120B1F5802F70B51DD2A9
:10424000C1F580239A4219D841EA0206C6F30B064B
:10425000A6B90C4C21F47F6121F00F01150B0C4421
:10426000AE4201D1002070BD20464FF48052FF21A4
:1042700004F046FE013604F58054F1E76FF01500B6
:10428000F1E700BF5258012008B54FF48022FF210A
:10429000024804F035FE002008BD00BF525801203E
:1042A0004FF4802301480B60704700BF5258012033
:1042B000F0B5406801F01F04057B87B044EA45145F
:1042C0000569002D63D0B2F5001F00F1100506D17D
:1042D0002146284606F06CFB002007B0F0BD002701
:1042E000B2F5800F01AE0197776039D1B3F1007F4D
:1042F00014BF052304238DF804300023CDE90463A3
:104300000393836823FA01F111F001011AD1B2F18C
:10431000A07F17D104F01F03620903F180032AD0A4
:10432000012A3AD11E4A52F82330DB070AD40DF194
:10433000030632462146284602F03EFA194B9842BF
:104340001BD002962146284603AA02F0F1F8164B2C
:1043500098421FD101222146284602F08FFABBE77E
:10436000B3F1C06F05D0B3F1007F14BF0123022366
:10437000C1E70323BFE70D4AD5E73146284602F0DF
:1043800077FA094B9842DCD06FF00B00A5E76FF08D
:104390008500A2E76FF015009FE751F82330FFDE9C
:1043A000002884500400AD0B0000AD0B00258450A4
:1043B00038B545682B69B3B11035284602F048FA84
:1043C000044680B90146284602F010FA084B98428C
:1043D0000BD122462846074902F0E8F9224605217A
:1043E0000D20FEF715FE002038BD6FF00400FBE73E
:1043F0000000AD0BF94300004209034670B502D03E
:10440000012A17D070BD0D4E326951680029F9D0CC
:10441000012503F01F030C689D400029F2D08A6833
:104420002A4002D030464B6898472CB12368214679
:104430001C46F2E7024EE7E72346F8E72CB50000FA
:1044400018B500002DE9F04340F206354668D00665
:1044500048BF0320337B02EA050558BFC2F3401072
:1044600087B001F01F07B5F5837F144647EA43176D
:104470008DF8030044D00FD8062D18D007D8B5B159
:10448000022D3FD06FF0150007B0BDE8F083B5F501
:10449000807FF7D101250AE040F20222954233D015
:1044A000B5F5407F32D0B5F5007FEBD10225012371
:1044B000220303FA01F12BD573689960326972BB4C
:1044C00007F01F037F0928D0012F75D13C4A02EB6A
:1044D000830284F48033D2F80012C3F30043C4F3A0
:1044E000404444EA430421F4706144EA800421F02A
:1044F0000F0144EA05230B43C2F800320020C3E752
:104500000725D4E70425D2E70525D0E70325CEE724
:10451000630344BF7368D960D0E72A4AD7E71036EF
:10452000394630460DF1020202F046F914F4403FDC
:1045300080460CD13946304606F038FA224B984571
:10454000DCD130469DF8021002F08CF9D6E74FF02E
:10455000000901AB3946304603AACDE90439CDE95B
:104560000199CDF80C9001F0E3FF174B984289D1E7
:1045700014F4003315D09DF8033084F48034C4F370
:1045800000448DF80E3039464B46304603AA8DF86C
:104590000C508DF80D4002F087F80B4B9842CDD0AF
:1045A00070E7CDE9043339460DF10303304603AA21
:1045B000039301F0BDFFF0E7803352F82330FFDEB4
:1045C00000288450002584500000AD0B036803F0E0
:1045D0001F025B09026004D0012B034818BF0020B2
:1045E00070470248704700BF00288450002584505F
:1045F0002DE9F04F1546834640F2FF18DFF8889109
:10460000DFF888A185B000EB8101594503D1002076
:1046100005B0BDE8F08FDBF80030C3F3C322082AF1
:10462000C3F3080400F2AA801B0E444508BF4FF0F4
:10463000FF3419F80270222B00F2A380DFE803F0A8
:1046400012191F22252B22A1A1A1A13A67A1A1A184
:10465000A1A1A1A1A1A16A7F8285A1A1A1888F9218
:1046600095989B00C5F80C45601C5DD10BF1040BBF
:10467000CBE7C5F81445621CF8D000265DE0C5F80C
:104680000845F1E7C5F81045F5E7631CC5F808458E
:10469000ECD0002604E0661CC5F80C45E6D00126E7
:1046A00003A80394FFF792FF0122039B02FA03F38E
:1046B000C36008E0C5F80845002FDCD1631CD5D0E5
:1046C000002606273246DBF80030039403F400404E
:1046D000002818BF002203A818BF012601930092EA
:1046E000FFF774FF039C019B00EB8400D0F80042AD
:1046F000C3F3412C009A3B0243EA8C03134304EAC0
:104700000A04234343EA4603C0F80032AEE7C5F883
:104710000C45D1E7C5F86045601CDBF80030A5D03A
:10472000C3F30043002BBAD0012603A80394FFF77C
:104730004DFF039B06FA03F383603246C3E7C5F8D7
:104740006445E9E7C5F86845E6E7C5F86C45E3E781
:10475000C5F82445621C89D001260022B3E7C5F8BC
:10476000284581E7C5F83045F4E7C5F83445F1E759
:10477000C5F83845EEE7C5F83C4575E76FF015001C
:1047800046E76FF0850043E739C10000F0F0FCFF19
:104790002DE9F04104460D46476806F066FD4FF0EE
:1047A000200888B9264B1B7873B16426606804F032
:1047B00090FEF0B9012006F068F8013EF6D1002124
:1047C000212006F0E9FDF0E7EFF31186314688F38A
:1047D0001288BFF36F8F606804F07BFEA8B986F380
:1047E0001188BFF36F8FEFE786F31188BFF36F8FE8
:1047F000E5E7EFF31186314688F31288BFF36F8F38
:10480000606804F066FE0028EED0FB6900201D7091
:104810006368FA691B68C3F844250122C3F8482578
:10482000C3F82001D3F82041C3F85801D3F8580148
:104830009A6081F31188BFF36F8FBDE8F08100BFEC
:1048400074580520F7B50546002201210820FEF71F
:10485000DFFB0820FEF7ACFB6B681A691868C0F82C
:104860002425997D5A7D0A43198B1B7D0B431343E5
:10487000C0F86C356E68D6E9004313F0010348D0E8
:104880002F6907F10C0001F0E9FB304B98425AD137
:10489000387B04F10C0204F5907106F002F8387BC5
:1048A000012707FA00F001F0D3FB0823C4F8003514
:1048B000F369C4F844350023C4F84835A760D4F838
:1048C0005831002BFBD00021C4F800156B6801AAF9
:1048D000DC68204604F046FD002805DB019B2268C9
:1048E00019791868FFF784FE08216A681368C3F80D
:1048F0000015117A51B9126AC3F834250122C3F8A0
:104900003825C3F81011D3F810111A60002003B035
:10491000F0BD0822C4F80025F269C4F84425C4F8A3
:1049200048350123A360D4F82031002BFBD00023AD
:10493000C4F82031D4F820310123E3604FF48073B0
:10494000C4F80433BBE76FF00400E0E70000AD0BF0
:104950000123834070B5DC430B4AD2E8EF1F01EA24
:104960000405C2E8E65F002EF7D14FF480328240A2
:104970000648C0F80823BFF35F8FBFF36F8F0B4269
:1049800014BF0120002070BDA03301200050015051
:1049900070B40E4922F07F46D1E90034D01AC31812
:1049A00044F10004C1E90034A6F50013B3F5400F4B
:1049B00009D2074B1B681A0A1B069C19054B42F1CA
:1049C0000005C3E9004570BC03F000BB4022002095
:1049D000A433012048220020D9B101230D4A83408D
:1049E000D2E8EFCF4CEA030CC2E8E1CF0029F7D1BF
:1049F0004FF48033084A8340C2F80433074BD3E8AE
:104A0000AF3FC340DB0742BF4FF40012044BC3F873
:104A100000217047A0330120005001509C33012039
:104A200000E100E00D4B1868010A0006BFF35F8F3C
:104A30000B4BD3F80435181841F10001B3F5801F72
:104A40000AD2084BD3E90023904271EB030303D24F
:104A500010F1807041F10001704700BFA4330120C4
:104A600000500150482200202DE9F04F85B0164635
:104A70001F4604469DF840A0FFF76AFF0190FFF72C
:104A8000D1FFB04271EB070352D23B4B301A67EBB8
:104A90000101984271F100014DD2384B03EB041330
:104AA000D3E902239F4208BF964258D04FF4803882
:104AB000334908FA04F8204626F07F4BC1F84883B2
:104AC00004F0A0FD4FF00309584604F15005AD0075
:104AD000ADB205F1502504F5A87305F580350293B4
:104AE000029A20F07F4341F82230C1F84483D1F884
:104AF0000435244AC01A033820F07F4090422ED952
:104B0000286868B1D1F80435A3EB0B0020F07F4092
:104B1000B0F5000F039322D9204604F073FD039BE8
:104B2000BAF1000F07D109EB030009F10109D7E73A
:104B3000BAF1000F09D06FF0150520460199FFF773
:104B40004BFF284605B0BDE8F08F01230E4AA34075
:104B5000D2E8EF0F1843C2E8E10F0029F8D1074966
:104B60000E982301C8500F9B01EB04120025C2E9E7
:104B700002675360E1E700BF01008000302200209F
:104B800000500150FDFF7F009C33012030B54FF0F5
:104B9000FF3000244FF0FF31194D1A4B4FF4001233
:104BA000C5F80833C5F84833174BC5F80845C3E9BD
:104BB00002014FF48033C5F804330223C5F80433EF
:104BC000124B85B00121C3F8802115202246FEF743
:104BD0001FFA1520FEF7ECF901230D4AAB602B609C
:104BE00013600C4B0C4A009320460023CDE901448E
:104BF000FFF73AFF2046FEF7D3FE204605B030BD52
:104C00000050015003000F003022002000E100E0BE
:104C1000A033012091490000FFFF7F002DE9F743F9
:104C20002E4BD3F8042390070BD5D3F8042142B1BF
:104C30000022C3F804212A4AD3F80431136801334F
:104C40001360264AD2F80433D90326D5254BD3E87E
:104C5000EF1F21F00100C3E8E40F002CF7D1CB07D0
:104C600002D4D2F84031C3B100251C4CC4F84051E5
:104C7000D4F84031FFF7D6FEEFF31182202383F3FF
:104C80001288BFF36F8F184BD3E90267B042B94166
:104C900006D282F31188BFF36F8F03B0BDE8F083B3
:104CA0004FF0FF38D3E900104FF0FF391D60C3E922
:104CB00002894FF48033C4F84833C4F84051D4F823
:104CC000403182F31188BFF36F8F0029E5D0009047
:104CD00032463B4628468847DFE700BF0050015078
:104CE000A43301209C3301203022002030B5431C26
:104CF000124C85B005D08442A8BF0446012CB8BF31
:104D00000124FFF78FFE0E4B0C4DD3E90013401A20
:104D1000B0F5000F0FD22218AA4228BF2A46002061
:104D200052180849CDE90100009143F10003FFF753
:104D30009BFE05B030BD2A46F1E700BFFFFF7F00B4
:104D4000402200209149000008B5FFF76BFE024B9E
:104D50001B68C01A08BD00BF40220020012310B507
:104D6000074C15206360FEF731F94FF40012054B34
:104D7000C4F80833C4F84833034BC3F8802110BD8E
:104D80000050015003000F0000E100E040EA010381
:104D9000C3F30D0330B58BB940F21515094C890BDF
:104DA000C0F38730994201D1002030BDC218D2B281
:104DB00002F5C07244F822500133F3E76FF015009A
:104DC000F3E700BF003000504FF0005318680D4B60
:104DD000984210D003F11C53A3F58B13A3F6CC53C8
:104DE00098420AD0084B984209D0084B98420CBF11
:104DF00004200220704700207047032070470120E4
:104E0000704700BFB6B3B4B55DCE03F1EC49F2B65E
:104E100008B5FFF7D9FF30B1034806F016FB0022B2
:104E2000024BC3F8402408BDA821002000300050E8
:104E30002DE9F0414FF0502315460122C3F8142606
:104E4000002858D0002956D04FF0005302F13642C6
:104E5000A2F14B12A2F59842C3E900204FF4084298
:104E60009960DA60FFF7B0FF4FF47F03D3F8302189
:104E70000646072AD3F834312DD1023B032B02D842
:104E80001E4AD35C3BB34FF050244FF0010800277B
:104E90000520C4F81886C4F8147605F0F6FC4046E0
:104EA000C4F8148605F0F1FCC4F81476C4F818763A
:104EB000FDB1134C204606F01BF9FFF785FF864233
:104EC000F8D002280F4B0CD100226FF00D00C3F870
:104ED0004024BDE8F0814FF050230022C3F814268F
:104EE000E6E74FF050220121C2F814160022C3F861
:104EF00040240020EDE76FF01500EAE74CC1000008
:104F000040420F000030005010220B4B13B5C3F885
:104F100040240022FFF78CFF044650B94FF40042B2
:104F200000230648CDE9002303F034F9044806F0D5
:104F3000DFF8204602B010BD00300050A82100204C
:104F400040420F001022034BC3F840240122FFF718
:104F50006FBF00BF00300050034B000240F0040060
:104F6000C3F80007704700BF00300050012803D18C
:104F700011B9024B18687047014BFBE7C0230020B2
:104F80000020002013B50446104806F0B6F8B0B172
:104F9000002001A9FFF784F90D4B02689A4211D154
:104FA0000389C16818444368B3F1807F0AD91CB1F2
:104FB000FFF7C8FF02B010BDFFF7A6FFFAE76FF0DA
:104FC0001200F7E76FF03C00F4E700BF7CB500008B
:104FD0003DB8F39630B5816885B0103921F00704EB
:104FE000054603F018FE10220146684603F088FFCC
:104FF00010226846064903F078FF10236A462146CE
:10500000284603F0D4FD003818BF012005B030BD9C
:1050100040BD000030B50D46816887B0102302AA5C
:105020001039044603F0AEFD002802DA012007B073
:1050300030BD1022204602A904F064FB00283AD1BA
:1050400010221E4902A803F029FF00280CBF0123EB
:1050500002232B70204604F041FB012301460DF191
:105060000702204603F08EFD0028DFDB9DF80730A5
:10507000204603F00F021B096A702B7101220DF10B
:10508000070104F03FFB10B96B78042B03D901230F
:105090006B7000232B71A2682046183A22F0070299
:1050A000083AA91C04F041FB0028BFD12046E91CA6
:1050B00004F057FBBBE70323CBE700BF40BD000074
:1050C0007FB56946044604F0DEFA012805D1264B77
:1050D000694653F8340004F04AFB002836D1224BCD
:1050E00002A903EBC403586804F041FB01282BD14B
:1050F00003238DF808308DF80B3000249DF8005004
:105100009DF80860194A2946107804F0EDFA18B3A2
:105110003146507804F0E8FAF0B19378042B03D0CC
:105120009DF80310994217D1D378042B03D09DF832
:105130000B10994210D11379042B09D15079831E99
:10514000022B03D804B070BD0028D6D0FF20F9E7A9
:105150009DF802109942F1D00134032C02F10602AD
:10516000D1D10120EEE700BF58BB000050C10000C4
:10517000044B1B68584043085B4240421843C01729
:10518000704700BFA83301208842F0B504D0002545
:10519000084F0438AA4200D1F0BD3E6850F8044FD1
:1051A0005E4024EA060451F8256001351E40344370
:1051B0000460EFE7A83301202DE9F04F8DB01D46C4
:1051C000189B8346B3F12A3F8A46179F1A9E059281
:1051D00040F08D803946169804F038FB012838BF1E
:1051E0000120470900F01F044FF001097B01502BFB
:1051F00034BF4B4603230A9309FA03F30B930A9B2C
:10520000059805FA03F306EB8303069303EB850386
:10521000079304F0F3FC4FEA85084246002108900A
:10522000304603F06DFE079BC6F800900393089B81
:105230003146CDE90153059B3046199A009306EBA0
:1052400008092B4604F0EBFC51464246484603F061
:105250004CFE0223494609930B9B099A934248D17D
:1052600042463146584603F040FE4FF00009CA4618
:10527000079B5A460393089B5946CDE90153059B6A
:10528000584600932B4604F0CAFC002C47D11F243B
:10529000013F169B0AF1010A53F82730E34003F05F
:1052A000010343EA49090A9B534503D0002CDFD18F
:1052B000002FDDD1189BB3F12A3F32D1424609FBC2
:1052C0000861069803F011FE079B59460393089B5B
:1052D0005846CDE90153059B069A00932B4604F0EE
:1052E0009EFC002CC1D1BFB90DB0BDE8F08F0024E9
:1052F0007AE7079B01EB080A0393089B4A46CDE92E
:105300000153059B504600932B4604F088FC099BF3
:105310005146013309939FE7A146A246A8E7013C05
:10532000B7E731464FF0000A0A4B2A4618681B6857
:10533000584080EA090080EA0A00FFF719FFC343DA
:105340000698FFF721FF099B0AF1010A53454144E2
:10535000EAD1B9E7A8330120054B01311B680132BE
:10536000434022EA030208400243501E00B2704745
:10537000A83301202DE9F04F834699B00F46184617
:1053800000211646039304F0BBFE002800F089813B
:1053900000240125774B30461493039915ABCDE9D2
:1053A0000B45CDE90D45CDE90F45CDE911451393E9
:1053B00004F02FFEA04228DABBF1000F05D1E7B9B7
:1053C0000024204619B0BDE8F08F2146584604F06D
:1053D000A8FD04460028F2D00BA804F0EFFC0DA8AD
:1053E00004F0ECFC0FA804F0E9FC11A804F0E6FCC2
:1053F0000C2115A800F032FBE3E73146384604F0F3
:105400005BFD04460028E7D1DAE731460BA804F03B
:1054100053FD04460028DFD103990DA804F04CFD8C
:1054200004460028D8D1F1880FA80231ADF83850D1
:10543000ADF8305004F0D0FC04460028CCD1014631
:105440000FA804F06EFD04460028C5D1F18811A80C
:10545000023104F0C1FC04460028BDD10DA804F0BF
:105460008CFD00F01F001F2873D0C0F11F031946E8
:105470000BA8019304F0A7FD04460028ACD10199C4
:105480000DA804F0A0FD04460028A5D1BDF83250B7
:10549000BDF83A800DA8A5EB080A4FEA4A1949461B
:1054A00004F091FD0446002896D14FEA8A0A0DA91E
:1054B0000BA804F0DDFD00284DDA49460DA804F0E4
:1054C0009FFD0446002887D108F1FF3305939B0018
:1054D00005F1FF3A069305F1804508F18043023B50
:1054E000013D9B00A5EB08050893AB000293059BCB
:1054F0009A4541D8BBF1000F0DD058460FA904F0D2
:10550000DBFC002840F0C980039AB388928813FB23
:1055100002F3ABF80430002F3FF45EAF01990BA803
:1055200004F06EFD002840F0B880B3880BA938461F
:10553000ADF8303004F0C0FC0146002840F0AF80E8
:10554000384604F0DDFD00287FF446AF0123BB8020
:1055500042E701949AE70F9A0BA952F80A300846DD
:10556000013342F80A300DAA04F0AFFE04460028C9
:105570009DD031E7010003000D9B069A049313446C
:10558000DDF82C900793049B4FEA8A089A5859F843
:105590002A10A8F104030F9D0993029B91421D4418
:1055A00076D2A8F10400002359F80000FAF7D2FDE2
:1055B000002914BF4FF0FF330346BAF1010F2B60EF
:1055C0000EBF002309EB080353F8083C1593A8F11C
:1055D000040359F80330169359F80830DDF81080A9
:1055E00017932B6801332B60089B98442B6800218C
:1055F000013B2B6011A804F094FC00284DD1059BC1
:10560000002B48D0D8F80020119B11A91A60079AE6
:10561000084612685A602A6804F05BFE00283CD1F4
:1056200013A911A804F024FD0028DFDC2A680DA9C5
:1056300011A804F04EFE80BB029B11A84FEAC308DC
:10564000414604F0C0FC40BB0BA9084611AA04F077
:105650003CFE014618BB0BA804F052FD002812DAEC
:105660000DA911A804F028FCB8B9414611A804F00E
:10567000AAFC90B90BA9084611AA04F023FE60B950
:105680002B68013B2B60029B0AF1FF3A043B2DE79C
:105690004FF0FF3391E7059AB6E704469CE60C46C7
:1056A0009AE66FF00B048CE62DE9F74F90461F4AFF
:1056B000064615680F464540ED43002B14BF9A4639
:1056C0008A4600240C9B04F104094B4505D20C9B2F
:1056D0009C4220D303B0BDE8F08F042208EB040104
:1056E0000DEB020003F001FC019A0AEB040106EA4B
:1056F000020B04220DEB020003F0F7FB019A3819AC
:105700002A4042EA0B02019204220DEB020103F04F
:10571000ECFB4C46D6E718F804301AF80420334066
:105720002A4013433B550134D1E700BFA833012081
:105730000928024818BF0020704700BF62C100005E
:1057400001680E4A0346914215D1C169A2F11022A7
:10575000A2F1EF1291420ED18268012A0BD8C268E1
:1057600012B101698A4206D0586928B19B691B1A97
:105770005842584170470120704700BF55AA00FFAA
:1057800070B50D4B9E68A6B13046FFF7D9FF0446B1
:1057900078B9F3686BB935690DB9204670BD2846F4
:1057A000FFF7CEFF28B9EB68B34202D12E462D6930
:1057B000F2E70124F1E700BFAC3301202DE9F84303
:1057C0003F4F3C68D4B1BC68C4B100284AD000291E
:1057D00048D001FB00F5B5FBF0F0884242D1281D0E
:1057E00040D8A9070DD025F003060436FC6803E075
:1057F0006368B34238D2A469002CF9D12046BDE8D1
:10580000F8832E46F2E7FB6041E006F120016318C1
:10581000203A5A600022C3E902242A4822691A6108
:1058200060502949D96102B1D36062695A61A169A6
:105830009961AAB193619A6902B153614FF001096C
:1058400023610023C4E90169C4E905333B69DB072F
:105850002ED5FFF795FF58B31C4B48461B6826E032
:10586000FB60E8E70024C9E7A3681BB1174B0120E0
:105870001B689847626804F12008921B232AC4D849
:105880000123A360D4E90523002ABCD09361A36956
:105890000BB162695A610023C4E905333B69DA0739
:1058A00006D5FFF76DFF18B10120084B1B6898471C
:1058B0002A4600214046444603F022FB9EE700BFF3
:1058C000AC33012055AA00FF669911EE8420002018
:1058D00070B50546002800F08880444E3368002BE0
:1058E00000F08380B268002A7FD0834203D87268B8
:1058F0001344984203D33E4B01201B689847A5F1FF
:1059000020042046FFF71CFF18B1394B01201B680B
:10591000984755F8183C012B03D0354B01201B68E4
:105920009847002345F8183C55F8143C3BB39A6857
:105930002ABB55F81C2C02F120015A680A445A600F
:1059400055E905321A6155F8145C2B6903B1DD6025
:1059500020220021204603F0D3FA286910B1836881
:10596000002B2ED033699B073FD5FFF709FF002896
:105970003BD0BDE870401E4B01201B68184755F80E
:10598000100C00282AD0836843BB42686368134424
:105990002033636003692361D4E905239AB9CBB945
:1059A000436963618269A261B3B19C61A36903B178
:1059B0005C61236903B1DC602022002103F0A0FABE
:1059C000D0E72C46E1E79361A369002BE8D0626938
:1059D0005A61E5E7F360F7E7F460E7E7F36845F855
:1059E000083C03B15C61F460BCE770BDAC330120DE
:1059F0008420002038B50C461422002105461348A7
:105A000003F07EFA1249134800F040F8232C1CD909
:105A100015F003031FBF043CE418C3F10403ED18A1
:105A200022460021284603F06BFA084B0A49C3E9D5
:105A30000054203C9D606C609A6811609A68A1F1E6
:105A40001021A1F1EF11D161DA6038BDAC33012032
:105A5000D1580000BD57000055AA00FF10B50A46F6
:105A6000044619B1024B00211B68984710BD00BFC6
:105A700080200020014B1B68184700BF8C200020AD
:105A8000014B1B68184700BF88200020024B18609C
:105A9000024B0020196070478C20002088200020D5
:105AA000F8B500F108064768044630460D4604F094
:105AB00068FA87424BD16368B3F5806F47D80021FD
:105AC000304604F01DFB002841DD0021304604F083
:105AD00044FAE0B345B9294604F1100004F010FB84
